:020000040800F2
:1000000028590020D901000855AA00083D720008AF
:100010005DA90008F11B0008F1CC000800000000F9
:1000200000000000000000000000000061B90008AE
:100030009529000800000000C1B4000821BD000897
:10004000F3010008F3010008F3010008F3010008C0
:10005000F3010008F3010008F3010008F3010008B0
:10006000F3010008F3010008F3010008F3010008A0
:10007000F3010008F3010008F3010008F301000890
:10008000F3010008F3010008F3010008F301000880
:10009000391C0008F3010008F3010008F30100080F
:1000A000F30100082DBE0008F3010008F301000869
:1000B000F3010008F3010008F3010008F301000850
:1000C000F3010008F3010008F3010008F301000840
:1000D000F3010008D1CC0008F3010008F301000887
:1000E000F3010008F3010008F3010008F301000820
:1000F000F3010008F3010008F3010008F301000810
:10010000F3010008F30100083DBE0008F3010008F8
:100110002DC50008F3010008F3010008F3010008F1
:10012000F3010008FD2400080D250008F301000874
:10013000F30100080000000000000000451D000859
:10014000351D0008F3010008F3010008F301000861
:10015000F30100081D2500082D250008E1CC00084A
:10016000F3010008F3010008F3010008F30100089F
:10017000F3010008F3010008F3010008000000008B
:1001800000000000F3010008000000000000000073
:10019000F30100080000000000000000F301000867
:1001A000000000000000000000000000F301000853
:1001B000F3010008F3010008F3010008F30100084F
:1001C000F3010008DFF80CD000F0B0FB0048004756
:1001D00011DE0008285900200648804706480047DD
:1001E000FEE7FEE7FEE7FEE7FEE7FEE7FEE7FEE7E7
:1001F000FEE7FEE719BE0008C50100082DE9F05F23
:100200000546002092469B46884606468146402485
:100210001BE0284641464746224600F025FA534651
:100220005A46C01A914110D311461846224600F092
:100230000CFA2D1A67EB01084F46224601200021D7
:1002400000F003FA17EB00094E41201EA4F101044F
:10025000DFDC484631462A464346BDE8F09F40EA87
:1002600001039B0703D009E008C9121F08C0042A34
:10027000FAD203E011F8013B00F8013B521EF9D21B
:100280007047D2B201E000F8012B491EFBD2704743
:100290000022F6E710B513460A4604461946FFF752
:1002A000F0FF204610BD2DE9FE4F804681EA030095
:1002B000C00F0C46009021F0004123F00045B8EB40
:1002C0000200A94105D24046214690461C460B46F5
:1002D000024623F00040104347D0270DC7F30A0021
:1002E000C3F30A510290401A019040286BDAC3F31D
:1002F000130040F4801B0098924620B10023D2EBFB
:10030000030A63EB0B0B01985946C0F140025046BB
:1003100000F09BF906460D4650465946019A00F0FA
:10032000B3F910EB08006141002487EA115284EA16
:10033000E7731A4340D0009A62B3019A012A4FEA48
:10034000075215DC001B61EB02014FF0004202EA8C
:100350000752CDE90042001C41F5801132462B4680
:1003600000F0EAF903B0BDE8F08F40462146F9E716
:10037000001B61EB0201001C41F5801300185B417A
:100380002018A2F5001747EB030140EAD570B61913
:100390006D4111E06D084FEA360645EAC0754FEA37
:1003A0000752001B61EB0201001C41F58011490856
:1003B0004FEA30000019514132462B4603B0BDE8E8
:1003C000F04F00F0AAB90098012240000023D0EBC2
:1003D000020263EBE073009821464FEAE074B8EB49
:1003E000000061EB0401E9E783F000435BE781F083
:1003F000004158E72DE9FE4F81EA030404F0004470
:1004000021F0004100944FF0000B23F0004350EA2C
:1004100001045ED052EA03045BD0C3F30A54C1F373
:100420000A552C44A4F2F3340194A0FB0254C1F306
:10043000130141F48011C3F3130343F4801301FB50
:10044000024400FB034E840A970A44EA815447EAB7
:100450008357A4FB076802958D0A05FB07854FEAC1
:10046000932C04FB0C542705029D4FEA065847EADB
:100470001637B5EB08056EEB070C870E920E47EAB0
:10048000811742EA8312A7FB0201B6EB0B0164EB72
:1004900000042B0D43EA0C335E1844EB1C50DA4683
:1004A0005146E7FB0201C5F313044FEA0B3343EA5D
:1004B00014534FEA0432019C43EA0603A4F10C04EE
:1004C0000294009CCDE900B400F036F903B0BDE819
:1004D000F08F00200146F9E72DE9F04D81EA030491
:1004E00004F0004B21F0004514464FF0000A23F0C1
:1004F000004150EA050220D054EA01021DD0C5F3A4
:100500000A570246C5F31303C1F31300C1F30A5699
:1005100040F4801543F48013A7EB0608101BD64661
:1005200008F2FD3873EB050002D308F1010801E081
:1005300092185B41B8F1000F03DA00200146BDE8D4
:10054000F08D00204FF48011064684460EE0171B04
:1005500073EB050705D3121B63EB050306434CEA57
:10056000010C49084FEA300092185B4150EA01073C
:10057000EDD152EA030012D082EA040083EA0501B9
:10058000084305D0101BAB4106D20122002306E030
:1005900000224FF0004302E06FF0010253101AEB0B
:1005A00006004CEB085110EB0A0041EB0B01BDE8D3
:1005B000F04D00F0B2B830B5041E71F1000404DB58
:1005C0004FF00044404264EB0101141E73F100043B
:1005D00005DB1C464FF00043524263EB0403801AD4
:1005E000994101D2012030BD002030BD00F0004211
:1005F00030F000400AD0C10D01F56071C0F3160063
:1006000042EA0151C20840071143704700200146E9
:10061000704701F0004330B421F0004150EA01027C
:1006200006D00A0DA2F56072C1F31301002A02DCA4
:1006300030BC00207047440F44EAC104C100E018F8
:1006400030BC00EBC25000F031B8202A04DB203A65
:1006500000FA02F1002070479140C2F1200320FA15
:1006600003F3194390407047202A04DB203A21FA13
:1006700002F00021704721FA02F3D040C2F12002BB
:100680009140084319467047202A06DBCB17203AD1
:1006900041FA02F043EAE07306E041FA02F3D04087
:1006A000C2F1200291400843194670470029A8BFB3
:1006B0007047401C490008BF20F00100704710B48B
:1006C000B0FA80FC00FA0CF050EA010404BF10BC40
:1006D000704749B1CCF1200421FA04F411FA0CF16D
:1006E00018BF012121430843A3EB0C01CB1D4FEAA6
:1006F00000614FEA102042BF002010BC704700EBA1
:10070000C35010440029A4BF10BC7047401C4900CE
:1007100008BF20F0010010BC704710B5141E73F123
:10072000000408DA401C41F1000192185B411A43B1
:1007300001D120F0010010BD2DE9F04D92469B46FD
:1007400011B1B1FA81F202E0B0FA80F220329046A3
:10075000FFF77BFF04460F4640EA0A0041EA0B011F
:1007600053465A46084313D0114653EA010019D0A4
:10077000C8F140025046FFF777FF05460E46504647
:1007800059464246FFF761FF084305D0012004E0C7
:1007900020463946BDE8F08D0020054346EAE07664
:1007A0002C4337430A986305E40AA0EB08000022B3
:1007B000FD0A44EA47540A3002D500200146E9E721
:1007C000010510196941DDE9084500196941BDE8D5
:1007D000F04DA2E770B521F0004303430CD0C1F304
:1007E0000A550024D5EB040564EB0403D617AD1AB3
:1007F000B34102DB0020014670BD201841EB0251DD
:1008000070BD2DE9F04D00231A461B1A8A4103DB07
:1008100000200146BDE8F08DC1F30A52C1F3130177
:1008200041F480154FF0000BD10702D100186D4143
:10083000521E0027044640F2FF11384601EB620ABF
:100840003E468046024600204FF48011FFF70CFF21
:10085000C2197141BB1846EB0100B4EB030C75EBF8
:10086000000C04D3E41A65EB000517460E46241964
:1008700008F101006D4180463428E3DDF91946EBAB
:100880000600091BA84103D24FF0FF32134601E0D6
:10089000002213461BEB070046EB0A51BDE8F04D62
:1008A000FFF73BBF0EB5C10F80EAE0700844CA07EE
:1008B000002140F233438DE80E000A460B46FFF755
:1008C0003BFF03B000BD000030B5041E71F1000411
:1008D00004DB4FF00044404264EB0101141E73F14D
:1008E000000405DB1C464FF00043524263EB040357
:1008F0008B4208BF824230BD30B5041E71F1000446
:1009000004DB4FF00044404264EB0101141E73F11C
:10091000000405DB1C464FF00043524263EB040326
:10092000994208BF904230BD00207047064C074DE9
:1009300006E0E06840F0010394E8070098471034AF
:10094000AC42F6D3FFF742FC102401083024010822
:1009500070B58C1810F8015B15F0070301D110F881
:10096000013B2A1106D110F8012B03E010F8016BAE
:1009700001F8016B5B1EF9D12B0705D40023521E31
:100980000DD401F8013BFAE710F8013BCB1A921C99
:1009900003E013F8015B01F8015B521EF9D5A14297
:1009A000D8D3002070BD000080B584B040F2CC30B8
:1009B000C2F200000078FE2840F0CA80FFE740F253
:1009C000CC30C2F200004078EE2840F0C180FFE752
:1009D00040F6AC01C2F2000188880130888040F204
:1009E000CC30C2F2000080780146029120B1FFE7CE
:1009F0000298012857D0AAE040F2CC32C2F200029D
:100A0000D2F81E1040F2FC20C2F200000190816179
:100A1000117B527B41EA02218180B0F9041000EE83
:100A2000101AB8EEC00A9FED5E1A80EE010A80ED42
:100A3000020A90ED060AB8EEC00A9FED5A1A20EE9F
:100A4000010A9FED5D1A30EE010A9FED5C1A30EE4F
:100A5000010A80ED080A40F21A42C2F20002917BBC
:100A6000D27B41EA02218185B0F9941000EE101A80
:100A7000B8EEC00A9FED4D1A20EE010A9FED4C1A08
:100A800080EE010A80ED0C0A90ED080A9FED491AEC
:100A900020EE010A40F6AC01C2F2000181ED090A24
:100AA000006B486353E040F2CC32C2F20002D2F84D
:100AB0001E1040F2FC20C2F200000090C164117BC5
:100AC000527B41EA02210187B0F9381000EE101A7A
:100AD000B8EEC00A9FED321A80EE010A80ED0F0ACF
:100AE00090ED130AB8EEC00A9FED2E1A20EE010A0F
:100AF0009FED2D1A30EE010A80ED150A40F21A42E0
:100B0000C2F20002917BD27B41EA0221A0F8601080
:100B1000B0F9941000EE101AB8EEC00A9FED231A37
:100B200020EE010A9FED221A80EE010A80ED190ADB
:100B300090ED150A9FED1F1A20EE010A40F6AC0158
:100B4000C2F2000181ED0C0A406E0864FFE724E068
:100B500041F22C20C2F2000005F0A6FD0020039017
:100B6000FFE703984D280CDCFFE7039A40F2CC31F5
:100B7000C2F2000100208854FFE70398013003907F
:100B8000EFE741F22C20C2F2000040F2CC31C2F279
:100B900000014E2206F0E8F9FFE704B080BD00BF77
:100BA000000080433FE5183B9DFBFFC1AE47E13DA0
:100BB0000000004398F98E3C5179A8C100003443ED
:100BC00083B040F21A40C2F200000078FE2840F0E4
:100BD000CD80FFE740F21A40C2F200004078EE28D4
:100BE00040F0C480FFE740F6AC01C2F20001B1F86A
:100BF000CC000130A1F8CC0040F21A40C2F2000053
:100C000080780146029120B1FFE70298012858D070
:100C1000ABE040F21A42C2F20002D2F81E1040F2DB
:100C2000FC20C2F200000190C0F88010117B537BC1
:100C300041EA0321A0F86C10B0F96C1000EE101A14
:100C4000B8EEC00A9FED4A1A80EE010A80ED1C0A38
:100C500090ED200AB8EEC00A9FED461A20EE010A78
:100C60009FED491A30EE010A9FED481A30EE010A55
:100C700080ED220A917BD27B41EA0221A0F89410F8
:100C8000B0F9941000EE101AB8EEC00A9FED3B1AAE
:100C900020EE010A9FED3A1A80EE010A80ED260A45
:100CA00090ED220A9FED371A20EE010A40F6AC01C2
:100CB000C2F2000181ED3B0AD0F89800C1F8FC00B7
:100CC00053E040F21A42C2F20002D2F81E1040F283
:100CD000FC20C2F200000090C0F8B410117B537BDE
:100CE00041EA0321A0F8A010B0F9A01000EE101AFC
:100CF000B8EEC00A9FED1E1A80EE010A80ED290AA7
:100D000090ED2D0AB8EEC00A9FED1A1A20EE010AE6
:100D10009FED191A30EE010A80ED2F0A917BD27BEC
:100D200041EA0221A0F8C810B0F9941000EE101AA0
:100D3000B8EEC00A9FED111A20EE010A9FED101ABD
:100D400080EE010A80ED330A90ED2F0A9FED0D1A17
:100D500020EE010A40F6AC01C2F2000181ED3E0A2C
:100D6000D0F8CC00C1F80801FFE7FFE703B07047F7
:100D7000000080433FE5183BACE811C2AE47E13DBF
:100D80000000004398F98E3C1A86FFBF00003443F0
:100D900040F26841C2F20001FE200870EE20487067
:100DA000BB2088700020C87005220A71FF224A719A
:100DB0008871C871087248728872C8720873487363
:100DC0008873C873087448748874C8740875487543
:100DD0008875C875087648768876C8760877487723
:100DE0008877C87781F8200081F8210070470000DB
:100DF00040F28A41C2F20001FE200870EE204870E5
:100E0000BB2088700020C87005220A71FF224A7139
:100E10008871C871087248728872C8720873487302
:100E20008873C873087448748874C87408754875E2
:100E30008875C875087648768876C87608774877C2
:100E40008877C87781F8200081F82100704700007A
:100E500080B582B001900199222048620199FE205C
:100E600008700199EE204870019991F82800887067
:100E700001990020C870019A0A211171019AFF217D
:100E80005171019988710199C87101998860019A1D
:100E900092ED0B0A9FED231A20EE010ABDEEC00A67
:100EA00010EE101A9181019A92ED0C0A9FED1E1A14
:100EB00020EE010ABDEEC00A10EE101AD181019990
:100EC00091ED0D0A9FED191A20EE010ABDEEC00A40
:100ED00081ED040A019A92ED0E0A9FED151A20EE9B
:100EE000010ABDEEC00A10EE101A9182019A92ED2D
:100EF0000F0A9FED101A20EE010ABDEEC00A10EE97
:100F0000101AD18201990876019948760199086CE6
:100F1000C861019807210CF095FE0199086202B0A2
:100F200080BD00BF000080430000004384F92245DB
:100F3000000000450000804481B0009000980078D7
:100F400040F26841C2F20001087000984078487091
:100F50000098807888700098C078C87000980079F0
:100F60000871009840794871009880798871009ADA
:100F70000020D071C871009A127A0A72009A527ACF
:100F80004A72009A927A8A72009AD27ACA72009A47
:100F9000127B0A73009A527B4A73009A927B8A737F
:100FA000009AD27BCA73087448748874C874009815
:100FB000007D08750098407D48750098807D887593
:100FC0000098C07DC8750098007E08760098407E25
:100FD00048760098007F88760098407FC876009811
:100FE000807F08770098C07F4877009890F82000AD
:100FF0008877009890F82100C877009890F8220030
:1010000081F82000009890F8230081F8210001B0B9
:101010007047000081B000900098007840F28A414B
:10102000C2F20001087000984078487000988078FB
:1010300088700098C078C87000980079087100988E
:1010400040794871009880798871009A0020D071A9
:10105000C871009A127A0A72009A527A4A72009AF9
:10106000927A8A72009AD27ACA72009A127B0A73B2
:10107000009A527B4A73009A927B8A73009AD27BC1
:10108000CA73087448748874C8740098007D087521
:101090000098407D48750098807D88750098C07DD7
:1010A000C8750098007E08760098407E48760098C3
:1010B000007F88760098407FC8760098807F087708
:1010C0000098C07F4877009890F8200088770098B3
:1010D00090F82100C877009890F8220081F820004D
:1010E000009890F8230081F8210001B070470000BB
:1010F00080B5AAB0299040F2EC11C2F200010022A2
:101100000A850120A1F86C00A1F8B020A1F8F40034
:1011100040F6AC00C2F20000269000F19C0340F2C1
:10112000C440C2F200000222279211460CF012F8CD
:101130002698279A00F1AC0340F2B440C2F20000B6
:1011400011460CF007F82698279A00F5B27340F282
:10115000CC40C2F2000011460BF0FCFF2698279A03
:1011600000F5BA7340F2BC40C2F2000011460BF029
:10117000F1FF0EF0F3F82890FFE728A801210DF009
:101180008FFD40F2B040C2F2000001F0EFFA40F2F1
:10119000E810C2F2000080ED000A40F2C850C2F22E
:1011A0000000007BB0B9FFE740F6AC00C2F20000DF
:1011B0002490DFEDC30ACDED250AB0EE600A08F0F9
:1011C000CFFD2498DDED250AC830B0EE600A08F0A6
:1011D000C7FDB4E040F6C850C2F200000079012813
:1011E00040F09480FFE740F2E070C2F200001990F6
:1011F00090ED080A8DED170A40F2B800C2F2000027
:101200001A9090ED000A8DED160A40F6AC00C2F27D
:101210000000209090ED1C0A0BF0C2FEB0EE401AC8
:101220009DED160A20EE010A8DED180A40F2247099
:10123000C2F200001B9090ED240A0CF0EBFA9DED39
:10124000171A2098B0EE402A9DED180AB7EE003A22
:101250008DED1D3A32EE032A20EE020A30EE010A2D
:1012600040F63C21C2F200011F9191ED081A30EEC8
:10127000410A90ED141AB1EE411A40F6C421C2F2AF
:101280000001219191ED082A71EE420A08F068FDF3
:10129000199A1A99209892ED190A8DED1E0A91ED6E
:1012A000010A8DED1C0A00F1C801229190ED4E0A51
:1012B0000BF076FE1B98B0EE401A9DED1C0A20EE56
:1012C000010A8DED230A90ED240A0CF0A3FA9DED9E
:1012D0001D2A9DED1E1A1F9B209A21992298B0EE7F
:1012E000403A9DED230A32EE432A20EE020A30EE08
:1012F000010A93ED081A30EE010A92ED461A91EDBB
:10130000082A71EE420A08F02BFD17E040F6AC0007
:10131000C2F200001390BAEE040A8DED140ADFED5C
:10132000680ACDED150A08F01BFD13989DED140A0F
:10133000DDED150AC83008F013FDFFE7FFE706F002
:1013400061FF07F0F3F840F6AC00C2F20000009035
:1013500090ED160AF0EE000ACDED010AB8EE001A83
:101360008DED021A01F0D8FB0098DDED010A9DED2C
:10137000021A40F2EC11C2F20001039181ED0B0A56
:1013800090ED170A01F0C8FB0098DDED010A9DED14
:10139000021A039981ED1C0A4431059190ED480A27
:1013A00001F0BAFB0098DDED010A9DED021A0399E8
:1013B00081ED2D0A8831049190ED490A01F0ACFBD2
:1013C000039880ED3E0A00F1CC010D91FFF740FD3E
:1013D0000398FFF7B1FD40F60000C4F2020006904A
:1013E0004FF4004107910122089203F05FF941F2A6
:1013F0002C20C2F200000B9040F26841C2F20001C2
:10140000099122220F9205F0FDFD0B9840F2CC319C
:10141000C2F200010A914E22119205F0A5FD9FED46
:10142000290A8DED0C0A01F075F90498FFF710FDFB
:101430000498FFF7EFFD0F9A41F2BC20C2F20000C2
:10144000129040F28A41C2F200010E9105F0DAFDDD
:10145000119A129840F21A41C2F20001109105F05F
:1014600083FD9FED190A01F055F90598FFF7F0FC8F
:101470000598FFF761FD06980799089A03F016F999
:1014800009990B980F9A05F0BDFD0A99119A0B98CE
:1014900005F06AFD9DED0C0A01F03CF90D98FFF78F
:1014A000D7FC0D98FFF7B6FD0E990F9A129805F02C
:1014B000A9FD1099119A129805F056FD5DE600BF3E
:1014C0000000000017B7D13817B7513980B540F286
:1014D0000040C4F202000221012203F0E7F880BDBF
:1014E00080B540F20040C4F202000221002203F065
:1014F000DDF880BD80B540F20040C4F20200012258
:10150000114603F0D3F880BD80B540F20040C4F22C
:1015100002000121002203F0C9F880BD80B584B02B
:101520000390FFF7DDFF922000F0D2F940F20A515C
:10153000C2F2000102911220062200F095F9FFF795
:10154000C5FF029B1878597840EA012040F2085103
:10155000C2F200010880B1F9000000EE100AB8EEF6
:10156000C00A40F20C00C2F2000090ED001A20EE1A
:10157000010A039A92ED081A20EE010A82ED000A90
:101580009A7893F803C042EA0C220A80B1F900204D
:1015900000EE102AB8EEC00A90ED001A20EE010A03
:1015A000039A92ED081A20EE010A82ED010A1A79D7
:1015B0005B7942EA03220A80B1F9001000EE101AAA
:1015C000B8EEC00A90ED001A20EE010A039890EDE3
:1015D000081A20EE010A80ED020AFFF795FF029932
:1015E0000020082200F040F9FFF784FF02980078FD
:1015F0000F2840F09E80FFE740F2A410C2F20000E6
:101600000078002850D0FFE740F20A53C2F20003EE
:101610009878D97840EA012040F20851C2F20001DE
:101620000880B1F9000000EE100AB8EEC00A40F2DE
:101630001000C2F2000090ED002A039A92ED091A00
:1016400020EE020A30EE410A82ED030A1A7993F87D
:1016500005C042EA0C220A80B1F9002000EE102AEF
:10166000B8EEC00A90ED002A039A92ED0A1A20EE15
:10167000020A30EE410A82ED040A9A79DB7942EAE5
:1016800003220A80B1F9001000EE101AB8EEC00A69
:1016900090ED002A039890ED0B1A20EE020A30EE2E
:1016A000410A80ED050A43E040F20A53C2F200030A
:1016B0009878D97840EA012040F20851C2F200013E
:1016C0000880B1F9000000EE100AB8EEC00A40F23E
:1016D0001000C2F2000090ED001A20EE010A039AF9
:1016E00082ED030A1A7993F805C042EA0C220A80B7
:1016F000B1F9002000EE102AB8EEC00A90ED001AF1
:1017000020EE010A039A82ED040A9A79DB7942EA13
:1017100003220A80B1F9001000EE101AB8EEC00AD8
:1017200090ED001A20EE010A039880ED050AFFE70C
:10173000FFE7FFF7D5FEA22000F0CAF840F20A51F9
:10174000C2F2000101912220022200F08DF8FFF781
:10175000BDFE019908784978C00040EA511140F275
:101760000850C2F200000180B0F90000B0F5806FAF
:1017700009DBFFE740F20851C2F200010888A0F53A
:1017800000600880FFE740F20850C2F20000B0F9A4
:10179000000000EE100AB8EEC00AB4EE001A20EE07
:1017A000010AB3EE071A30EE010A039880ED070A2A
:1017B00004B080BD80B584B003908DF80B10039801
:1017C00040F21451C2F20001086040F6E861C2F232
:1017D00000010191002008700CF09CF8019902466C
:1017E0000878104308700CF073F9019902460878E4
:1017F000104308709DF80B0038B1FFE740F2D44069
:10180000C2F2000000F0C6FA24E040F2D441C2F275
:1018100000014AF6D960CBF6DB0048624EF2A960BF
:10182000C3F6CC3088624EF66F20C3F6DD20C86266
:1018300043F2F740C4F21C10086391ED0C1A9FEDBF
:10184000090A80EE010A81ED080A0020C4F2202076
:101850008861FFE740F6E860C2F20000007804B05B
:1018600080BD00BFC3F51C4180B584B08DF80F006A
:1018700002918DF807209DF80F0040F0800000F0E5
:1018800027F8FFE79DF8070070B1FFE7552000F04B
:101890001FF8029908700298013002909DF8070025
:1018A00001388DF80700EDE704B080BD80B582B047
:1018B0008DF8070000919DF8070040F0800000F0CF
:1018C00007F8552000F004F80099087002B080BDB8
:1018D00080B582B08DF8070040F21450C2F20000CB
:1018E00000686A464FF47A7111600DF107010DF13D
:1018F0000602012303F084FE9DF8060002B080BDBD
:1019000080B582B08DF807008DF806109DF80700AD
:10191000FFF7DEFF9DF80600FFF7DAFF02B080BD9B
:1019200080B58CB00B900DF019FD0A90FFE70AA866
:1019300001210CF0E1FA40F6D060C2F2000000F0A4
:1019400015FF40F21850C2F20000059080ED000A29
:1019500090ED000A06F07EFF059890ED000A07F072
:101960005FF9059890ED000A40F22470C2F2000081
:101970006946486040F66803C2F2000303F12000A4
:10198000086040F6AC00C2F20000069000F1C80109
:10199000089140F60C62C2F20002079209F094F836
:1019A0000599079891ED000A0AF0C2F80699079880
:1019B00040F6C852C2F20002099207F0A5FF07984C
:1019C0000899099A07F0A0FF40F2C850C2F200003F
:1019D000007FC8B9FFE740F2A801C2F2000191ED13
:1019E000001A40F2B800C2F2000090ED000A30EE9A
:1019F000010A80ED000A91ED011A90ED010A30EE26
:101A0000010A80ED010A09E040F2B801C2F20001CA
:101A10000020C4F2782008604860FFE740F2C85018
:101A2000C2F20000407B012811D1FFE740F21C50B8
:101A3000C2F200000490D0ED030AB1EE601A9FEDEF
:101A40001A0A01F069F8049880ED080A26E040F2CD
:101A50001060C2F2000090ED030A8DED030A40F21F
:101A6000C850C2F20000808841F2B621084400B29A
:101A70004FF40051002201F0E1F89DED030A01EE60
:101A8000100AB8EEC11A9FED072A61EE020A40F271
:101A90001C50C2F2000009F093FBFFE708F012F9B6
:101AA00045E700BFC520303D0000A04283B0029052
:101AB00001910092009890ED004A90ED010A90ED9E
:101AC000026A90ED035A26EE062AB6EE001A31EEAF
:101AD000422A25EE053A32EE432A029824EE057A90
:101AE00020EE063A33EE477AD0ED000AD0ED011A27
:101AF00090ED023A27EE217A22EE202A32EE072AD2
:101B000024EE064A20EE050A30EE040A20EE030A0F
:101B100030EE020A30EE000A019880ED000A0098CB
:101B200090ED004A90ED016A90ED022A90ED035A83
:101B300024EE053A26EE020A30EE030A029826EE5B
:101B4000063A31EE433A25EE057A33EE477AD0ED88
:101B5000000AD0ED011A90ED023A27EE217A20EE2C
:101B6000200A30EE070A24EE064A22EE052A32EE5B
:101B7000442A22EE032A30EE020A30EE000A0198CF
:101B800080ED010A009890ED002A90ED014A90ED59
:101B9000023A90ED030A22EE036A24EE005A35EE73
:101BA000465A029822EE042A23EE000A30EE020A78
:101BB00090ED006A90ED017A90ED022A20EE070A7E
:101BC00025EE065A30EE050A24EE044A31EE441A98
:101BD00023EE033A31EE431A21EE021A30EE010AE7
:101BE00030EE000A019880ED020A03B07047000051
:101BF000FFE7FEE780B58AB00020009001900290D8
:101C0000039004900590069001200790089040F6FC
:101C10002C70C2F20000694601F0ECF910B1FFE748
:101C2000FFE7FEE740F62C70C2F20000022101F04F
:101C30000BF90AB080BD000080B540F62C70C2F2EE
:101C4000000001F0B7FB80BD80B582B040F6D450F3
:101C5000C2F20000009000F11C0240F62C70C2F2AB
:101C6000000040F20863C2F20003002101F098FA7C
:101C70000098C069019040F24111884205D0FFE709
:101C80000198B0F5A17F12D024E040F6D661C2F2EF
:101C9000000108880130088040F66800C2F20000A8
:101CA00040F20861C2F2000107F0FCFC13E040F6CC
:101CB000D661C2F2000148880130488040F66800D1
:101CC000C2F20000203040F20861C2F2000107F0C9
:101CD000E9FC00E0FFE740F6D661C2F200010888A7
:101CE0004A88801A888002B080BD000080B58AB022
:101CF0000020009001900290039004900F21059124
:101D00000E210991069001200790089040F654702A
:101D1000C2F20000694601F06DF910B1FFE7FFE77C
:101D2000FEE740F65470C2F20000022101F08CF888
:101D30000AB080BD80B540F65470C2F2000001F0D8
:101D400039FB80BD80B540F65470C2F2000001F04E
:101D500031FB80BD80B584B0FFF74CFF40F62C709E
:101D6000C2F20000019001F00DFFFFF7BFFF40F647
:101D70005470C2F20000039001F004FF01980221A8
:101D8000029101F061F80299039801F05DF804B046
:101D900080BD000080B592B005A90291119000208D
:101DA00010900F9000F008FD40F2C050C2F2000009
:101DB00080ED000AFFE700F0FFFC40F2C050C2F2E5
:101DC000000090ED001A30EE410AB2EE041AB4EEB3
:101DD000410AF1EE10FA1EDDFFE711994AF6D960CB
:101DE000CBF6DB00486211994EF2A960C3F6CC3005
:101DF000886211994EF66F20C3F6DD20C8621199F2
:101E000043F2F740C4F21C10086311990020C4F299
:101E100020208861F6E29FEDE40A00F07BFC119936
:101E20000020086311994862119988621199C8626B
:101E3000ADF81200FFE7BDF8120040F21401C2F243
:101E400000010988884280F2E781FFE7FFF748FB3D
:101E50009220FFF73DFD12200FA901910622FFF706
:101E600003FDFFF733FB9DF83C009DF83D1040EA71
:101E70000120ADF83A00BDF93A0000EE100AB8EEC4
:101E8000C00A40F20C00C2F2000090ED001A20EEF1
:101E9000010A119981ED000A9DF83E109DF83F203E
:101EA00041EA0221ADF83A10BDF93A1000EE101ADD
:101EB000B8EEC00A90ED001A20EE010A119981EDEA
:101EC000010A9DF840109DF8412041EA0221ADF839
:101ED0003A10BDF93A1000EE101AB8EEC00A90EDB3
:101EE000001A20EE010A119880ED020A119890ED77
:101EF000001A90ED012A90ED020A22EE022A21EE4C
:101F0000011A31EE021A20EE000A30EE010A0FF03B
:101F10007AFA029880ED020A90ED021A119890ED7B
:101F20000C0A30EE010A80ED0C0AFFF7EDFA019978
:101F300000200822FFF798FCFFF7DCFA9DF83C0030
:101F40000F285FD1FFE79DF83E009DF83F1040EA63
:101F50000120ADF83A00BDF93A0000EE100AB8EEE3
:101F6000C00A40F21000C2F2000090ED001A20EE0C
:101F7000010A119981ED030A119991ED031A91ED6E
:101F8000090A30EE010A81ED090A9DF840109DF81A
:101F9000412041EA0221ADF83A10BDF93A1000EEB5
:101FA000101AB8EEC00A90ED001A20EE010A11993D
:101FB00081ED040A119991ED041A91ED0A0A30EEAF
:101FC000010A81ED0A0A9DF842109DF8432041EA7A
:101FD0000221ADF83A10BDF93A1000EE101AB8EE31
:101FE000C00A90ED001A20EE010A119880ED050A52
:101FF000119890ED051A90ED0B0A30EE010A80ED74
:102000000B0AFFE7BDF8120038BBFFE70798069000
:102010000798059000208DF81100FFE79DF811004A
:10202000022819DCFFE711989DF8112000EB8200CF
:10203000C0680BA941F8220011989DF8112000EB0F
:102040008200C06808A941F82200FFE79DF811004E
:1020500001308DF81100E1E764E0029890ED020A8A
:1020600090ED011AB4EE410AF1EE10FA03DDFFE73C
:1020700007980690FFE7029890ED020A90ED001A8B
:10208000B4EE410AF1EE10FA03DAFFE70798059083
:10209000FFE700208DF81000FFE79DF810000228F0
:1020A0003FDCFFE711989DF8101000EB810090EDE8
:1020B000030A0BA800EB810090ED001AB4EE410A70
:1020C000F1EE10FA0ADDFFE711989DF8102000EB01
:1020D0008200C0680BA941F82200FFE711989DF823
:1020E000101000EB810090ED030A08A800EB8100BE
:1020F00090ED001AB4EE410AF1EE10FA0ADAFFE7A9
:1021000011989DF8102000EB8200C06808A941F8E2
:102110002200FFE7FFE79DF8100001308DF8100066
:10212000BBE7FFE7029890ED010A90ED001A30EE50
:10213000410A40F6F860C2F2000080ED000A00207B
:102140008DF80F00FFE79DF80F0002281DDCFFE768
:102150009DF80F100BA800EB810090ED000A08A875
:1021600000EB810090ED001A30EE410A40F6087055
:10217000C2F2000000EB810080ED000AFFE79DF84D
:102180000F0001308DF80F00DDE740F6F860C2F275
:10219000000090ED000AB6EE001AB4EE410AF1EE2E
:1021A00010FA2DDC02E000BF0AD7A33B40F608700E
:1021B000C2F2000090ED000A9FED981AB4EE410AB9
:1021C000F1EE10FA1CDCFFE740F60870C2F20000E6
:1021D00090ED010A9FED911AB4EE410AF1EE10FA6A
:1021E0000EDCFFE740F60870C2F2000090ED020A34
:1021F0009FED8A1AB4EE410AF1EE10FA01DDFFE715
:102200000AE09FED870A00F085FAFFE7BDF81200AB
:102210000130ADF812000EE640F21400C2F20000E8
:10222000008800EE100AB8EE401A119890ED0C0AE2
:1022300080EE010A80ED0C0A00208DF80E00FFE709
:102240009DF80E0002281BDCFFE740F21400C2F2EA
:102250000000008800EE100AB8EE401A11989DF8B0
:102260000E1000EB810090ED090A80EE010A80ED6E
:10227000090AFFE79DF80E0001308DF80E00DFE738
:10228000FFF72EF9A220FFF723FB22200FA902223D
:10229000FFF7EAFAFFF71AF99DF83C009DF83D10A8
:1022A000C00040EA5110ADF83A00BDF93A00B0F56F
:1022B000806F07DBFFE7BDF83A00A0F50060ADF8DE
:1022C0003A00FFE7BDF93A0000EE100AB8EEC00A86
:1022D000B4EE001A20EE010AB3EE071A30EE010A3E
:1022E000119880ED060A40F6D461C2F20001088818
:1022F00001300880FFE740F6F860C2F2000090ED80
:10230000000A0120B6EE001AB4EE410AF1EE10FA0E
:10231000009071DCFFE7119890ED0C0A9FED411AD7
:1023200030EE010AB0EEC00A0120B6EE001AB4EE9B
:10233000410AF1EE10FA00905EDCFFE740F608700B
:10234000C2F2000090ED000A01209FED341AB4EEB5
:10235000410AF1EE10FA00904EDCFFE740F60870FB
:10236000C2F2000090ED010A01209FED2C1AB4EE9C
:10237000410AF1EE10FA00903EDCFFE740F60870EB
:10238000C2F2000090ED020A01209FED241AB4EE83
:10239000410AF1EE10FA00902EDCFFE7119890ED63
:1023A000090AB0EEC00A01209FED1F1AB4EE410ADF
:1023B000F1EE10FA00901FDCFFE7119890ED0A0A89
:1023C000B0EEC00A01209FED181AB4EE410AF1EEFA
:1023D00010FA009010DCFFE7119890ED0B0AB0EEB8
:1023E000C00A9FED111A0020B4EE410AF1EE10FA76
:1023F000C8BF01200090FFE70098C00700287FF4C5
:10240000DAACFFE7119890ED0C1A9FED080A80EE08
:10241000010A80ED080A12B080BD00BF9A99193EEA
:102420006F12033ACDCC1CC10AD7233CC3F51C4123
:1024300080B584B003900CF091FF0290FFE702A8F2
:1024400002210CF02DFC41F2F031C2F200010888AB
:10245000013008800020A0BBFFE740F6C850C2F260
:10246000000000F01BFC40F66800C2F2000040686B
:1024700041F2D431C2F20001086040F6AC00C2F271
:102480000000D0F88000486040F60C60C2F2000006
:10249000C2688A60C26BCA6082680A61006A486169
:1024A00040F2C800C2F2000001901822FDF7D7FEEA
:1024B000019941F27420C2F200001C2204F014FEC3
:1024C000FFE741F2F030C2F20000008849F69811AF
:1024D000C1F699114CF6CD42CCF6CC4200FB02106D
:1024E0004FEA7000884207D8FFE740F6C850C2F2B2
:1024F000000004F04FFEFFE7A1E7000080B541F2C5
:102500003C00C2F2000001F037FC80BD80B540F60F
:102510007C70C2F2000001F02FFC80BD80B541F25A
:102520009C00C2F2000001F027FC80BD80B540F69F
:10253000DC70C2F2000001F01FFC80BD82B001908F
:102540000198007810384AF6AB21CAF6AA21A0FB00
:10255000011000090090009942F2F420C0F6010039
:10256000405C0199C8650098042807D3FFE70199EA
:102570000868042262F30900886506E0019908688A
:1025800040F2FF3290438865FFE70198806D02B00A
:102590007047000086B0059000208DF81300059864
:1025A000806A03900598806910BBFFE7039802904A
:1025B00003281BD80299DFE801F0020D02180598E4
:1025C00090F82F00C00720B1FFE701208DF813001D
:1025D000FFE70CE00598C06AB0F1C07F04D1FFE7C7
:1025E00001208DF81300FFE701E000E0FFE745E080
:1025F00005988069B0F5005F25D1FFE70398019049
:1026000003281ED80199DFE801F00206021101201B
:102610008DF8130016E0059890F82F00C00720B140
:10262000FFE701208DF81300FFE70BE00598C06A73
:10263000B0F1C07F04D1FFE701208DF81300FFE760
:1026400000E0FFE719E003980090032804D3FFE7B8
:102650000098032804D00EE001208DF813000BE051
:10266000059890F82F00C00720B1FFE701208DF8F2
:102670001300FFE700E0FFE7FFE7FFE79DF8130027
:1026800006B0704784B003900291019200930398C2
:102690000168086820F480200860009803990968A0
:1026A000486003988068402809D1FFE701980399A2
:1026B00009688860029803990968C86008E0029870
:1026C000039909688860019803990968C860FFE761
:1026D00004B0704781B041F20400CEF200000068FF
:1026E0000090009840F2B851C2F200010968884297
:1026F00008D2FFE740F2BC51C2F200010868013085
:102700000860FFE7009840F2B851C2F2000108608B
:1027100001B0704783B08DED020A41F20400CEF2A1
:1027200000000068019002980090FFE741F2040069
:10273000CEF2000000680199401A00EE100AB8EECF
:10274000400A9DED001A40F2A450C2F2000090ED44
:10275000002AB8EE422A21EE021AB4EE410AF1EE46
:1027600010FA01DAFFE7E1E703B0704780B584B003
:10277000039041F20400CEF200000068029002983B
:1027800003990968401A00EE100AB8EE400A40F2B8
:10279000A450C2F2000090ED001AB8EE411A80EE8B
:1027A000010A8DED010A029803990860FFF792FF74
:1027B0009DED010A04B080BD80B582B000F06CF8D8
:1027C00040F66C60C2F2000090ED000AB8EE401ACC
:1027D000818800EE101AB8EEC00A9FED0B2A20EE99
:1027E000020A30EE011AC08800EE100AB8EEC00AE4
:1027F0009FED062A20EE020A30EE010A8DED010A55
:102800009DED010A02B080BD6F12833ABD37863557
:1028100081B000904EF6FC51CEF20001086840F005
:102820008070086041F20401CEF2000100200860CF
:1028300041F20002CEF20002116841F00101116084
:10284000009944F24022C0F20F024A4340F2A451E0
:10285000C2F200010A600A6844F6D353C1F262036F
:10286000A2FB0332920940F2A853C2F200031A609D
:1028700009684DF68362C4F21B32A1FB0221890C68
:1028800040F2AC52C2F20002116040F2BC51C2F2FE
:102890000001086001B07047B0B586B041F2040095
:1028A000CEF2000000680590FFF714FF40F2BC5024
:1028B000C2F2000001680598002302934FF0FF3C2C
:1028C0001A46E1FB0C0240F2B051C2F20001009145
:1028D0004A6008600868496840F2A454C2F20004E3
:1028E0002268FDF78BFC029B02468C46009940F261
:1028F000F050C2F20000C0F804C00260D1F800C07D
:102900004968D0F800E042682468AEFB04E502FBA9
:102910000452BCEB0E0C61EB020240F2F851C2F221
:1029200000010391C1F800C04A60006840F66C6283
:10293000C2F20002049210600868496840F2A8528E
:10294000C2F2000201921268FDF758FCDDF804C0E3
:10295000029B049A0146039891800168406892881E
:10296000DCF800C002FB0CF28A1A60F1000040F2B1
:102970000061C2F200010A6048600868496840F2DC
:10298000AC52C2F200021268FDF738FC0499C8800C
:1029900006B0B0BD7047000083B002900191009274
:1029A000009890ED004A90ED012A90ED026A90EDBA
:1029B000035A26EE060AB6EE001A31EE400A25EE5C
:1029C000053A30EE437A029824EE053A22EE060AE2
:1029D00030EE030AD0ED000AD0ED011A90ED023A74
:1029E00020EE210A27EE207A30EE070A24EE064A6E
:1029F00022EE052A32EE442A22EE032A30EE020AA3
:102A000030EE000A019880ED000A009890ED004A2F
:102A100090ED016A90ED020A90ED035A24EE053A1A
:102A200026EE002A32EE432A029826EE063A31EECE
:102A3000433A25EE057A33EE477AD0ED000AD0ED21
:102A4000011A90ED023A27EE217A22EE202A32EE88
:102A5000072A24EE064A20EE050A30EE040A20EE8C
:102A6000030A30EE020A30EE000A019880ED010AF6
:102A7000009890ED005A90ED014A90ED023A90EDE9
:102A8000032A25EE036A24EE020A30EE060A0298B3
:102A900025EE045A23EE022A32EE455A90ED006AE2
:102AA00090ED017A90ED022A25EE075A20EE060AF3
:102AB00030EE050A24EE044A31EE441A23EE033ABE
:102AC00031EE431A21EE021A30EE010A30EE000A0E
:102AD000019880ED020A03B07047000072B6FFE76C
:102AE000FEE7000082B08DED000A9DED000AB5EE14
:102AF000400AF1EE10FA03DBFFE70098019006E0D0
:102B00009DED000AB1EE400A8DED010AFFE79DED53
:102B1000010A02B07047000084B08DED020ACDEDCD
:102B2000010A8DED001A9DED020A9DED011AB4EE29
:102B3000410AF1EE10FA07DDFFE79DED010A8DED88
:102B4000020A8DED030A13E09DED020A9DED001AC5
:102B5000B4EE410AF1EE10FA07DAFFE79DED000A44
:102B60008DED020A8DED030A02E002980390FFE763
:102B70009DED030A04B0704780B584B0ADF80E0037
:102B80000291ADF80620BDF80E0002990988401A9E
:102B900000B200F03DF80146481C0091E0B1FFE7AB
:102BA0000098012830D1FFE7BDF90E000299B1F974
:102BB0000010401ABDF90610884207DDFFE7BDF896
:102BC0000620029908881044088004E0BDF80E0031
:102BD00002990880FFE718E00298B0F90000BDF9FB
:102BE0000E10401ABDF90610884207DDFFE7BDF858
:102BF000062002990888801A088004E0BDF80E00BB
:102C000002990880FFE700E0FFE704B080BD000004
:102C100081B0ADF80000BDF90000B0F1FF3F04DC69
:102C2000FFE7FF208DF8030003E001208DF803008B
:102C3000FFE79DF9030001B07047000082B0ADF8D6
:102C40000600ADF80410ADF80220BDF90600BDF98C
:102C5000041088420BDDFFE7BDF90620BDF9041022
:102C600092FBF1F000FB1120ADF8060012E0BDF977
:102C70000600BDF9021088420BDAFFE7BDF8060036
:102C8000BDF80210401ABDF804100844ADF8060063
:102C9000FFE7FFE7BDF9060002B0704780B584B0DA
:102CA000039000200290019040F6B861C2F200014A
:102CB000BB20086005200861039800788DF80400A7
:102CC000039800798DF80500039840798DF8060087
:102CD000039880788DF807000398C0788DF8080075
:102CE00040F65470C2F2000001AA012300F0D6F8A9
:102CF000E0B1FFE740F65470C2F2000040F6B86160
:102D0000C2F2000101AA022300F0C8F868B1FFE78F
:102D100040F65470C2F2000040F6B861C2F2000101
:102D200001AA042300F0BAF8FFE7FFE704B080BD72
:102D300080B584B000210391029140F65470C2F234
:102D4000000040F6D452C2F20002009202AB00F042
:102D500027FA00980068019040F2062188420BD0C3
:102D6000FFE7019840F20721884225D0FFE701984C
:102D7000B0F5027F3FD061E09DF8080040F2C851F5
:102D8000C2F2000181F820009DF80900C8779DF883
:102D90000A0008749DF80B0008739DF80C209DF83C
:102DA0000D0040EA0220088040F6D661C2F2000120
:102DB000C8880130C88042E09DF8080040F2C85140
:102DC000C2F2000108779DF8090088739DF80A0097
:102DD00008749DF80B0008739DF80C209DF80D00F9
:102DE00040EA0220088040F6D661C2F2000108895C
:102DF0000130088123E0BDF8080040BA00EE100A57
:102E0000B8EEC00A9FED0F1A20EE010A40F21061E1
:102E1000C2F2000181ED030A9DF80A209DF80B0023
:102E200040EA022048809DF80C209DF80D0040EA01
:102E3000022088839DF80E00C883FFE7FFE704B0F7
:102E400080BD00BFC520303D84B002900191029842
:102E500090F820008DF803009DF80300012805D0AC
:102E6000FFE79DF8030002280AD1FFE7019A0298C4
:102E7000016848691043486100208DF80F0008E0A0
:102E80000299486A40F48020486201208DF80F00C2
:102E9000FFE79DF80F0004B07047000088B006906F
:102EA000059104920393069890F820008DF807008E
:102EB00006980068806800900598806808B9FFE768
:102EC00000E0FFE79DF80700012806D0FFE79DF826
:102ED0000700022840F08080FFE79DF803004007CC
:102EE00000280CD4FFE79DF803000007002806D453
:102EF000FFE79DF80300C006002864D5FFE70098AF
:102F0000C0F3016002900299012088400399086093
:102F10000598806868B9FFE705980168C06840EACD
:102F2000415006990968029A01EB0211C1F880012B
:102F30000EE005994A688868C96840EAC2000843FB
:102F400006990968029A01EB0211C1F88001FFE7B6
:102F50000598006906990968029A01EB0211C1F807
:102F600084010598007D01280CD1FFE706980068D0
:102F7000029900EB0111D1F8840140F48070C1F88E
:102F80008401FFE70498406806990968029A01EBFA
:102F90000211C1F88C010498006806990968029A28
:102FA00001EB0211C1F8880106980068029900EB54
:102FB0000111D1F8800140F00100C1F8800100202A
:102FC0008DF81F0011E00699486A40F4001048622D
:102FD00001208DF81F0008E00699486A40F480201F
:102FE000486201208DF81F00FFE79DF81F0008B020
:102FF0007047000086B00490039104980068019027
:10300000049890F820008DF803009DF80300012833
:1030100006D0FFE79DF80300022840F0B080FFE7EC
:1030200046F20040C4F2000001900199D1F800027C
:1030300040F00100C1F800020199D1F8000220F42B
:103040007C50C1F800020398426A0199D1F800024D
:1030500040EA0220C1F800020398406900F01F0115
:10306000012088400290029A0199D1F81C029043F5
:10307000C1F81C020398C069F0B9FFE7029A0199F0
:10308000D1F80C029043C1F80C02039A9088D168E1
:10309000526940EA0140019901EBC201C1F84002C6
:1030A000039A10889168526940EA0140019901EB46
:1030B000C201C1F84402FFE70398C06901281ED18C
:1030C000FFE7029A0199D1F80C021043C1F80C02F3
:1030D000039A90881168526940EA0140019901EB16
:1030E000C201C1F84002039A90899168526940EA8E
:1030F0000140019901EBC201C1F84402FFE70398C6
:10310000806940B9FFE7029A0199D1F8040290431F
:10311000C1F8040207E0029A0199D1F804021043B1
:10312000C1F80402FFE70398006940B9FFE7029A7B
:103130000199D1F814029043C1F8140207E0029AF1
:103140000199D1F814021043C1F81402FFE7039863
:10315000006A012808D1FFE7029A0199D1F81C0200
:103160001043C1F81C02FFE70199D1F8000220F0DA
:103170000100C1F8000200208DF8170008E0049952
:10318000486A40F48020486201208DF81700FFE76C
:103190009DF8170006B0704781B0009001B07047ED
:1031A00086B00490039102920193049890F8200055
:1031B0008DF803009DF80300012806D0FFE79DF875
:1031C0000300022840F0E880FFE7039880B9FFE79A
:1031D00004980068C068800748B9FFE70499486A06
:1031E00040F40010486201208DF81700DDE00FE088
:1031F000049800680069800748B9FFE70499486AA5
:1032000040F40010486201208DF81700CDE0FFE780
:1032100004980068039900EB0110D0F8B00100F0A9
:103220000400029988600298806858B9FFE7049802
:103230000068039900EB0110D0F8B001400D02992D
:1032400008600AE004980068039900EB0110D0F8C8
:10325000B001C00802994860FFE70498006803992C
:1032600000EB0110D0F8B00100F002000299C86034
:1032700004980068039900EB0110D0F8B40100F045
:103280000F00082804D3FFE70299082008610BE02B
:1032900004980068039900EB0110D0F8B40100F025
:1032A0000F0002990861FFE704980068039900EB9A
:1032B0000110D0F8B40180B2000A02998861049824
:1032C0000068039900EB0110D0F8B401000C0299DA
:1032D000486104980068039900EB0110D0F8B80128
:1032E0000199087004980068039900EB0110D0F868
:1032F000B801000A0199487004980068039900EB2E
:103300000110D0F8B801000C019988700498006889
:10331000039900EB0110D0F8B801000E0199C870B4
:1033200004980068039900EB0110D0F8BC010199E2
:10333000087104980068039900EB0110D0F8BC01F3
:10334000000A0199487104980068039900EB011084
:10335000D0F8BC01000C01998871049800680399A9
:1033600000EB0110D0F8BC01000E0199C871039860
:1033700038B9FFE704980168C86840F02000C860C9
:1033800006E004980168086940F020000861FFE742
:1033900000208DF8170008E00499486A40F4802066
:1033A000486201208DF81700FFE79DF8170006B06E
:1033B0007047000080B58AB00990002008900998F5
:1033C000006840690790099800684068069009986D
:1033D00000688068059009980068C06804900998A2
:1033E00000680069039009980068806902909DF860
:1033F0001C00C007002800F09480FFE79DF814002F
:10340000C00758B3FFE709980168012088609DF85C
:1034100014008007002804D5FFE7099800F0FCFBA2
:103420001BE09DF814004007002805D5FFE7089829
:1034300040F4006008900FE09DF814000007002899
:1034400005D5FFE7089840F48050089003E00998FC
:1034500000F0DEFBFFE7FFE7FFE7FFE79DF8150061
:10346000C00760B3FFE7099801684FF48070886077
:103470009DF815008007002804D5FFE7099800F0A3
:10348000D3FB1BE09DF815004007002805D5FFE79A
:10349000089840F4005008900FE09DF815000007D0
:1034A000002805D5FFE7089840F48040089003E025
:1034B000099800F0B5FBFFE7FFE7FFE7FFE79DF89E
:1034C0001600C00760B3FFE7099801684FF4803029
:1034D00088609DF816008007002804D5FFE709984A
:1034E00000F0AAFB1BE09DF816004007002805D558
:1034F000FFE7089840F4004008900FE09DF81600A0
:103500000007002805D5FFE7089840F480300890B0
:1035100003E0099800F08CFBFFE7FFE7FFE7FFE718
:10352000FFE79DF81C000007002810D5FFE79DF875
:103530001000C006002809D5FFE7089840F4007085
:103540000890099801681020C860FFE7FFE79DF820
:103550001C00400700280FD5FFE79DF8100000076A
:10356000002808D5FFE7099801680820C860099875
:1035700000F0DAFAFFE7FFE79DF81C00800700285B
:103580000BD5FFE709980068C068800720B1FFE706
:10359000099800F0CDFAFFE7FFE79DF81C00400610
:1035A000002810D5FFE79DF80C00C006002809D5BB
:1035B000FFE7089840F4806008900998016810209F
:1035C0000861FFE7FFE79DF81C00800600280FD583
:1035D000FFE79DF80C000007002808D5FFE70998D1
:1035E000016808200861099800F0C0FAFFE7FFE7CA
:1035F0009DF81C00C00600280BD5FFE7099800685D
:103600000069800720B1FFE7099800F0B3FAFFE7EF
:10361000FFE79DF81E00800700280FD5FFE79DF803
:103620001800C006002808D5FFE709980168102097
:103630004860099800F0A2FAFFE7FFE79DF81E0036
:10364000C00778B1FFE79DF818000007002808D5EB
:10365000FFE70998016808204860099800F0F0FA2F
:10366000FFE7FFE79DF81D000006002840F18D8070
:10367000FFE79DF818004007002840F18180FFE730
:103680009DF81D00C00750B1FFE79DF80800C00776
:1036900028B1FFE7089840F001000890FFE79DF887
:1036A0001D00800700280BD5FFE79DF80800800764
:1036B000002805D5FFE7089840F002000890FFE7D2
:1036C0009DF81D00400700280BD5FFE79DF8080076
:1036D0004007002805D5FFE7089840F0040008904F
:1036E000FFE79DF81D000007002848D5FFE79DF87B
:1036F000080010F0700F42D0FFE7029800F0700051
:1037000001460191102814D0FFE70198202815D018
:10371000FFE70198302816D0FFE70198402817D01E
:10372000FFE70198502818D0FFE70198602819D0CA
:103730001DE0089840F00800089019E0089840F053
:103740001000089014E0089840F0200008900FE066
:10375000089840F0400008900AE0089840F0800087
:10376000089005E0089840F48070089000E0FFE7BA
:1037700009980168886920F070008861FFE7FFE719
:103780000998016804204860FFE7089848B1FFE7FE
:10379000089A0999486A104348620998FFF7FCFCA7
:1037A000FFE70AB080BD000080B584B002900298A7
:1037B00020B9FFE701208DF80F00E0E0029890F8B3
:1037C000200020B9FFE7029800F0DEF8FFE702983A
:1037D0000168086840F00100086000F07FFF019078
:1037E000FFE7029800684068C007A8B9FFE700F04B
:1037F00075FF0199401A0B280DD3FFE70299486A1B
:1038000040F4003048620299052081F82000012030
:103810008DF80F00B3E0E4E702980168086820F033
:103820000200086000F05AFF0190FFE7029800686C
:1038300040688007002815D5FFE700F04FFF019989
:10384000401A0B280DD3FFE70299486A40F4003074
:1038500048620299052081F8200001208DF80F00B0
:103860008DE0E3E70298007E012807D1FFE7029888
:103870000168086840F08000086006E0029801686E
:10388000086820F080000860FFE70298407E012869
:1038900007D1FFE702980168086840F0400008601F
:1038A00006E002980168086820F040000860FFE721
:1038B0000298807E012807D1FFE702980168086816
:1038C00040F02000086006E002980168086820F0D7
:1038D00020000860FFE70298C07E012807D1FFE7BB
:1038E00002980168086820F01000086006E002985D
:1038F0000168086840F010000860FFE70298007F48
:10390000012807D1FFE702980168086840F0080025
:10391000086006E002980168086820F00800086066
:10392000FFE70298407F012807D1FFE7029801686E
:10393000086840F00400086006E002980168086822
:1039400020F004000860FFE7029B19685A68986835
:10395000D3F80CC040EA0C00D3F810C040EA0C00C9
:103960005B691843013A1043C8610299002048621C
:10397000029A012182F820108DF80F00FFE79DF8D0
:103980000F0004B080BD000080B592B011900020FF
:1039900010900F900E900D900C901198006846F2C8
:1039A0000041C4F2000188424BD1FFE740F234608D
:1039B000C2F200000168013101600068012812D1E3
:1039C000FFE7FFE700200B9043F64000C4F202003F
:1039D000016841F000710160006800F000700B9018
:1039E0000B98FFE7FFE7FFE700200A9043F630005F
:1039F000C4F20200016841F002010160006800F0B9
:103A000002000A900A98FFE74FF440700C900220E1
:103A10000D90002005900E9003200F90092010902B
:103A200040F20040C4F202000CA900F071FC059ABB
:103A300014200690052100F025FF069800F018FFDD
:103A40006FE01198006846F60001C4F20001884258
:103A500066D1FFE7FFE70020099043F64000C4F27B
:103A60000200016841F080610160006800F0806040
:103A700009900998FFE740F23460C2F20000016843
:103A8000013101600068012812D1FFE7FFE7002043
:103A9000089043F64000C4F20200016841F0007152
:103AA0000160006800F0007008900898FFE7FFE7E9
:103AB000FFE70020079043F63000C4F202000168DF
:103AC00041F002010160006800F0020007900798D1
:103AD000FFE74FF440500C9002200D90002003901F
:103AE0000E9003200F900920109040F20040C4F285
:103AF00002000CA900F00CFC039A3F200190052164
:103B0000029100F0BFFE019800F0B2FE0299039A04
:103B10004020049000F0B6FE049800F0A9FEFFE7F4
:103B2000FFE712B080BD000081B0009001B0704787
:103B300080B582B001900198006846F20041C4F25D
:103B40000001884203D1FFE7FEF77EF8FFE7019806
:103B5000006846F60001C4F20001884203D1FFE785
:103B6000FFF7E6F8FFE702B080BD000081B00090EB
:103B700001B0704781B0009001B0704781B00090F3
:103B800001B0704780B584B00290029890F8200090
:103B900001282FD1FFE70299022081F82000029826
:103BA0000168086820F00100086000F097FD0190AE
:103BB000FFE7029800684068C007A8B1FFE700F07F
:103BC0008DFD0199401A0B280DD3FFE70299486A31
:103BD00040F4003048620299052081F8200001205D
:103BE0008DF80F000FE0E4E70299002048628DF89D
:103BF0000F0008E00299486A40F400204862012062
:103C00008DF80F00FFE79DF80F0004B080BD0000A5
:103C100081B0009001B0704781B0009001B0704752
:103C200081B0009001B0704781B0009001B0704742
:103C300081B0009001B0704781B0009001B0704732
:103C400081B0009001B0704780B584B002900298B6
:103C5000806D019000F042FD0090029890F83500D0
:103C600002280DD0FFE7029980204865FFE70299FE
:103C7000002081F83400FFE701208DF80F0055E0A7
:103C800002980168086820F0160008600298016830
:103C9000486920F0800048610298006C20B9FFE775
:103CA0000298806C38B1FFE702980168086820F03C
:103CB00008000860FFE702980168086820F001002A
:103CC0000860FFE7029800680068C007C8B1FFE716
:103CD00000F004FD0099401A062811D3FFE702996D
:103CE000202048650299032081F83500FFE70299FA
:103CF000002081F83400FFE703208DF80F0015E065
:103D0000E0E70298C16D3F208840019988600299E0
:103D1000012081F83500FFE70299002081F8340086
:103D2000FFE7FFE700208DF80F00FFE79DF80F0089
:103D300004B080BD82B00090009890F83500022851
:103D400007D0FFE700998020486501208DF8070023
:103D50000EE00099052081F8350000980168086898
:103D600020F001000860FFE700208DF80700FFE762
:103D70009DF8070002B0704780B586B0059000201E
:103D8000039040F2C000C2F20000006848F2B51192
:103D9000C1F64E31A0FB0110800A02900598806D9B
:103DA000019001980068049004980599C96DC84075
:103DB000000700281AD5FFE705980068006840074B
:103DC000002812D5FFE705980168086820F0040074
:103DD00008600598C16D08208840019988600599A0
:103DE000486D40F001004865FFE7FFE7049805993A
:103DF000C96DC840C007A0B1FFE7059800684069D9
:103E0000000600280CD5FFE70598C16D0120884009
:103E1000019988600599486D40F002004865FFE708
:103E2000FFE704980599C96DC8404007002814D5DC
:103E3000FFE7059800680068800700280CD5FFE7B9
:103E40000598C16D04208840019988600599486DE6
:103E500040F004004865FFE7FFE704980599C96D45
:103E6000C840C006002847D5FFE7059800680068ED
:103E7000000700283FD5FFE70598C16D1020884056
:103E800001998860059800680068400300281AD5E9
:103E9000FFE70598006800680003002809D4FFE7E1
:103EA0000598006C20B1FFE70598016C8847FFE793
:103EB00008E00598806C20B1FFE70598816C884781
:103EC000FFE7FFE716E0059800680068C0050028D6
:103ED00007D4FFE705980168086820F0080008602B
:103EE000FFE70598006C20B1FFE70598016C884753
:103EF000FFE7FFE7FFE7FFE704980599C96DC840B2
:103F00008006002840F18D80FFE705980068006872
:103F1000C006002840F18480FFE70598C16D20208D
:103F2000884001998860059890F83500052834D1BB
:103F3000FFE705980168086820F0160008600598FA
:103F40000168486920F0800048610598006C20B93C
:103F5000FFE70598806C38B1FFE7059801680868AD
:103F600020F008000860FFE70598C16D3F208840F9
:103F7000019988600599012081F83500FFE70599CE
:103F8000002081F83400FFE70598006D20B1FFE7BD
:103F90000598016D8847FFE77BE005980068006899
:103FA000400300281AD5FFE7059800680068000361
:103FB000002809D4FFE70598406C20B1FFE7059879
:103FC000416C8847FFE708E00598C06B20B1FFE728
:103FD0000598C16B8847FFE7FFE720E00598006878
:103FE0000068C005002811D4FFE70598016808683B
:103FF00020F0100008600599012081F83500FFE7E6
:104000000599002081F83400FFE7FFE70598C06BB1
:1040100020B1FFE70598C16B8847FFE7FFE7FFE79F
:10402000FFE70598406DA0B3FFE70598406DC00716
:1040300030B3FFE70599052081F835000598016840
:10404000086820F001000860FFE703980130039042
:104050000299884201D9FFE707E0FFE70598006869
:104060000068C0070028F0D1FFE70599012081F81A
:104070003500FFE70599002081F83400FFE7FFE7EE
:104080000598C06C20B1FFE70598C16C8847FFE731
:10409000FFE706B080BD000080B586B00490002028
:1040A000039000F01BFB0290049820B9FFE7012069
:1040B0008DF81700A3E00498406A08B1FFE7FFE716
:1040C0000499022081F83500FFE70499002081F867
:1040D0003400FFE704980168086820F001000860D8
:1040E000FFE7049800680068C00790B1FFE700F0A0
:1040F000F5FA0299401A06280AD3FFE7049920200E
:1041000048650499032081F835008DF8170076E0A2
:10411000E7E70498006800680390039848F23F01BD
:10412000CFF2100108400390049900914868D1F83B
:1041300008C0CB680A6940EA0C00184310434A697A
:1041400010438A691043CA691043096A01430398FE
:10415000084303900498406A042808D1FFE70499B3
:10416000C86A096B0143039808430390FFE703986B
:1041700004990968086004980068406903900398EE
:1041800020F0070003900498416A039808430390C5
:104190000498406A04281AD1FFE70498816A0398BA
:1041A000084303900498C06A80B1FFE70498FEF7C3
:1041B000F1F950B1FFE704994020486504990120C6
:1041C00081F835008DF8170019E0FFE7FFE7039845
:1041D0000499096848610498FEF7B0F901900498C1
:1041E000C16D3F208840019988600499002048658E
:1041F000049A012182F835108DF81700FFE79DF829
:10420000170006B080BD000080B588B0069005910B
:104210000492039300208DF80B000698806D0190A6
:10422000FFE7069890F83400012804D1FFE7022048
:104230008DF81F0045E00699012081F83400FFE762
:10424000FFE7069890F8350001282BD1FFE7069983
:10425000022081F8350006990020486506980599E6
:10426000049A039BFEF70EFA0698C16D3F20884022
:104270000199886006980168086840F01600086097
:104280000698006C38B1FFE706980168086840F0AE
:1042900008000860FFE706980168086840F0010020
:1042A000086009E0FFE70699002081F83400FFE785
:1042B00002208DF80B00FFE79DF80B008DF81F0022
:1042C000FFE79DF81F0008B080BD000080B584B0F6
:1042D000039000F003FA02900398019001980130D6
:1042E00048B1FFE740F2B810C2F20000017801982F
:1042F00008440190FFE7FFE700F0F0F90299401A47
:104300000199884201D2FFE7F6E704B080BD0000C2
:104310008DB00C900B9100200990089007900A90A6
:10432000FFE70A980F2800F2BE81FFE70A990120F3
:10433000884009900B9800680999084008900898EF
:104340000999884240F0AA81FFE70B98406800F085
:104350000300012807D0FFE70B98406800F0030036
:1043600002282FD1FFE70C98806807900A98410037
:10437000032000FA01F10798884307900B98C06862
:104380000A99490000FA01F1079808430790079835
:104390000C9988600C98406807900A99012000FAEF
:1043A00001F10798884307900B984068C0F300100C
:1043B0000A9900FA01F107980843079007980C99A9
:1043C0004860FFE70B98406800F00300032818D00E
:1043D000FFE70C98C06807900A984100032000FA94
:1043E00001F10798884307900B9880680A99490063
:1043F00000FA01F107980843079007980C99C860E4
:10440000FFE70B98406800F00300022826D1FFE781
:104410000C980A996FF0030202EA51010844006AFD
:1044200007900A9800F0070081000F2000FA01F1C0
:104430000798884307900B9800690A9901F00701D3
:10444000890000FA01F107980843079007980C9932
:104450000A9B02EA530211440862FFE70C980068C5
:1044600007900A984100032000FA01F10798884359
:1044700007900B98406800F003000A99490000FA81
:1044800001F107980843079007980C9908600B986A
:1044900080798007002800F00081FFE7FFE7002017
:1044A000069043F64400C4F20200016841F48041E2
:1044B0000160006800F4804006900698FFE70A98C3
:1044C00020F0030043F60801C4F2010140580790B0
:1044D0000A9800F0030081000F2000FA01F107980C
:1044E000884307900C980021C4F20201884203D14E
:1044F000FFE70020059050E00C9840F20041C4F224
:104500000201884203D1FFE70120049042E00C98A9
:1045100040F60001C4F20201884203D1FFE7022005
:10452000039034E00C9840F60041C4F20201884246
:1045300003D1FFE70320029026E00C9841F200012E
:10454000C4F20201884203D1FFE70420019018E081
:104550000C9841F20041C4F20201884203D1FFE706
:10456000052000900AE00C9941F60002C4F2020214
:104570000720914208BF06200090FFE700980190B5
:10458000FFE701980290FFE702980390FFE7039886
:104590000490FFE704980590FFE70598C0B20A99D8
:1045A00001F00301890000FA01F107980843079020
:1045B00007980A9921F0030143F60802C4F20102A8
:1045C000885043F60840C4F201000068079008993B
:1045D0000798884307900B988079C006002805D576
:1045E000FFE70899079808430790FFE7079843F605
:1045F0000841C4F20101086043F60C40C4F2010016
:104600000068079008990798884307900B9880796D
:104610008006002805D5FFE708990798084307900A
:10462000FFE7079843F60C41C4F20101086043F626
:104630000440C4F201000068079008990798884375
:1046400007900B9880798007002805D5FFE7089927
:10465000079808430790FFE7079843F60441C4F220
:104660000101086043F60040C4F2010000680790B1
:1046700008990798884307900B988079C00728B15C
:10468000FFE70899079808430790FFE7079843F664
:104690000041C4F201010860FFE7FFE7FFE70A9865
:1046A00001300A903DE60DB07047000082B00190E5
:1046B000ADF802108DF801209DF8010028B1FFE748
:1046C000BDF802000199886105E0BDF80200000410
:1046D00001998861FFE702B07047000045F20400CD
:1046E000C2F200000068704740F2B810C2F2000049
:1046F000027845F20401C2F2000108681044086023
:104700007047000080B543F60041C4F2020108681A
:1047100040F400700860086840F480600860086831
:1047200040F480700860032000F0C6F8052000F017
:1047300005F800F071F8002080BD000080B58CB055
:104740000B90002005900490FFE70020019043F6B5
:104750004400C4F20200016841F0010101600068F8
:1047600000F0010001900198FFE706A803A900F0FE
:10477000DDF900F01DFA4000059005984DF68361C3
:10478000C4F21B31A0FB01014FF0FF3000EB914060
:10479000049041F25410C2F200000021C4F2010161
:1047A000016040F2E731C16004994160002101617C
:1047B0008160816101F082F98DF80B009DF80B009A
:1047C00028BBFFE741F25410C2F2000001F00AFAE0
:1047D0008DF80B009DF80B00C0B9FFE7192000F021
:1047E00047F80B980F280CD8FFE70B9919200022E7
:1047F00000F048F80B9840F2BC11C2F200010860CA
:1048000003E001208DF80B00FFE7FFE7FFE79DF8CD
:104810000B000CB080BD000080B582B0FFE7002027
:10482000019043F64400C4F20200016841F4804163
:104830000160006800F4804001900198FFE7FFE705
:104840000020009043F64000C4F20200016841F0ED
:1048500080510160006800F0805000900098FFE7F0
:104860006FF001000F21002200F00CF802B080BDB3
:1048700080B582B08DF807009DF9070008F030FB85
:1048800002B080BD80B586B08DF817000491039208
:104890000020029008F03CFB02909DF91700019067
:1048A00002980499039A06F0D7F80146019808F097
:1048B00037FB06B080BD000080B582B00190019842
:1048C00008F050FB02B080BD80B584B00290019129
:1048D000029820B9FFE701208DF80F0021E101982F
:1048E00043F60041C4F20201096801F00F01884259
:1048F00012D9FFE7019943F60040C4F202000170AB
:10490000006800F00F000199884204D0FFE7012001
:104910008DF80F0005E1FFE7029800788007002876
:104920002AD5FFE7029800784007002809D5FFE75D
:1049300043F60801C4F20201086840F4E050086040
:10494000FFE7029800780007002809D5FFE743F643
:104950000801C4F20201086840F460400860FFE703
:1049600043F60801C4F20201086820F0F000029A40
:10497000926810430860FFE702980078C00700289B
:104980006ED0FFE702984068012811D1FFE743F697
:104990000000C4F20200006800F400310020B0EB17
:1049A000514F04D1FFE701208DF80F00B9E02CE052
:1049B00002984068022805D0FFE702984068032863
:1049C00011D1FFE743F60000C4F20200006800F0D6
:1049D00000710020B0EB516F04D1FFE701208DF88A
:1049E0000F009EE010E043F60000C4F202000068F1
:1049F00000F002010020B0EB510F04D1FFE70120CD
:104A00008DF80F008DE0FFE7FFE743F60801C4F2E1
:104A10000201086820F00300029A526810430860FF
:104A2000FFF75CFE0090FFE743F60800C4F20200C7
:104A3000006800F00C0002994968B0EB810F0ED0BD
:104A4000FFE7FFF74BFE0099401A41F28931884297
:104A500004D3FFE703208DF80F0062E0E4E7FFE7EF
:104A6000019843F60041C4F20201096801F00F0108
:104A7000884212D2FFE7019943F60040C4F20200D7
:104A80000170006800F00F000199884204D0FFE730
:104A900001208DF80F0044E0FFE7029800784007FE
:104AA00000280CD5FFE743F60801C4F202010868AC
:104AB00020F4E050029AD26810430860FFE70298A1
:104AC0000078000700280DD5FFE743F60801C4F27F
:104AD0000201086820F46040029A126940EAC200AC
:104AE0000860FFE700F076F843F60801C4F202011F
:104AF0000968C9B20A0942F2DC21C0F60101895CE9
:104B0000C84040F2C001C2F20001086040F2BC108F
:104B1000C2F200000068FFF711FE00208DF80F00C0
:104B2000FFE79DF80F0004B080BD000082B0019047
:104B3000009101990F20086043F60800C4F20200BA
:104B4000016801F00301019A5160016801F0F00170
:104B5000019A9160016801F4E051019AD160006806
:104B600000F46040C0080199086143F60040C4F2B7
:104B70000200006800F00F000099086002B0704762
:104B800040F2C000C2F200000068704780B5FFF735
:104B9000F7FF43F60801C4F202010968C1F382225B
:104BA00042F2EC21C0F60101895CC84080BD0000E2
:104BB00080B5FFF7E5FF43F60801C4F2020109687A
:104BC00089B24A0B42F2EC21C0F60101895CC8406F
:104BD00080BD000080B586B0002005900490039051
:104BE0000290019043F60800C4F20200006800F051
:104BF0000C00014600910C2800F29B800099DFE830
:104C000001F0079898980D989898139898985700DD
:104C100042F20040C0F2F400019090E041F6003012
:104C2000C0F2B70001908AE043F60400C4F202002B
:104C3000016801F03F01059100684002002813D58A
:104C4000FFE743F60400C4F202000068C0F38810D6
:104C500041F60031C0F2B701A0FB0101059A002323
:104C6000FBF7CCFA049012E043F60400C4F2020011
:104C70000068C0F3881042F20041C0F2F401A0FBCA
:104C80000101059A0023FBF7B9FA0490FFE743F608
:104C90000400C4F20200006800F44031022000EB7E
:104CA000D130039004980399B0FBF1F0019046E0F5
:104CB00043F60400C4F20200016801F03F010591CF
:104CC00000684002002813D5FFE743F60400C4F251
:104CD00002000068C0F3881041F60031C0F2B7014D
:104CE000A0FB0101059A0023FBF788FA049012E06B
:104CF00043F60400C4F202000068C0F3881042F2D8
:104D00000041C0F2F401A0FB0101059A0023FBF76A
:104D100075FA0490FFE743F60400C4F2020000684D
:104D2000C0F30270029004980299B0FBF1F0019078
:104D300005E042F20040C0F2F4000190FFE7019864
:104D400006B080BD80B586B00490049820B9FFE716
:104D500001208DF8170084E304980078C00700282C
:104D600000F0BA80FFE743F60800C4F202000068D2
:104D700000F00C00042828D0FFE743F60800C4F236
:104D80000200006800F00C0008280BD1FFE743F692
:104D90000400C4F20200006800F48000B0F5800F47
:104DA00013D0FFE743F60800C4F20200006800F0E9
:104DB0000C000C281ED1FFE743F60400C4F20200E9
:104DC00000684002002815D5FFE743F60000C4F252
:104DD0000200006800F400310020B0EB514F08D011
:104DE000FFE70498406820B9FFE701208DF817001D
:104DF00037E370E0FFE704984068B0F5803F09D1E1
:104E0000FFE743F60001C4F20201086840F4803075
:104E1000086020E004984068B0F5A02F0DD1FFE7AE
:104E200043F60001C4F20201086840F480200860E3
:104E3000086840F4803008600CE043F60001C4F2DA
:104E40000201086820F480300860086820F480209F
:104E50000860FFE7FFE7FFE704984068E8B1FFE775
:104E6000FFF73CFC0390FFE743F60000C4F20200AA
:104E7000006800F400310020B0EB514F0CD1FFE787
:104E8000FFF72CFC0399401A652804D3FFE70320A1
:104E90008DF81700E5E2E7E71CE0FFF71FFC039041
:104EA000FFE743F60000C4F20200006800F400319E
:104EB0000020B0EB514F0CD0FFE7FFF70FFC039938
:104EC000401A652804D3FFE703208DF81700C8E2D5
:104ED000E7E7FFE7FFE7FFE704980078800700288F
:104EE00040F1A980FFE743F60800C4F20200006821
:104EF00010F00C0F26D0FFE743F60800C4F20200C2
:104F0000006800F00C00082809D1FFE743F6040010
:104F1000C4F2020000684002002813D5FFE743F600
:104F20000800C4F20200006800F00C000C282CD12C
:104F3000FFE743F60400C4F20200006840020028C4
:104F400023D4FFE743F60000C4F20200006800F03B
:104F500002010020B0EB510F09D0FFE70498C068B0
:104F6000012804D0FFE701208DF8170079E243F60D
:104F70000001C4F20201086820F0F800049A1269E6
:104F800040EAC2000860FFE754E00498C06870B3CC
:104F9000FFE70021C4F2472101200860FFF79EFBD4
:104FA0000390FFE743F60000C4F20200006800F03F
:104FB00002010020B0EB510F0CD1FFE7FFF78EFB91
:104FC0000399401A032804D3FFE703208DF8170044
:104FD00047E2E7E743F60001C4F20201086820F067
:104FE000F800049A126940EAC200086021E000213A
:104FF000C4F2472100200860FFF770FB0390FFE731
:1050000043F60000C4F20200006800F00201002034
:10501000B0EB510F0CD0FFE7FFF760FB0399401A8C
:10502000032804D3FFE703208DF8170019E2E7E710
:10503000FFE7FFE7FFE704980078000700284BD55B
:10504000FFE70498406918B3FFE740F68061C4F2B7
:10505000472101200860FFF741FB0390FFE743F67B
:105060007400C4F20200006800F002010020B0EBFE
:10507000510F0CD1FFE7FFF731FB0399401A0328CA
:1050800004D3FFE703208DF81700EAE1E7E722E009
:1050900040F68061C4F2472100200860FFF71EFB44
:1050A0000390FFE743F67400C4F20200006800F0CA
:1050B00002010020B0EB510F0CD0FFE7FFF70EFB11
:1050C0000399401A032804D3FFE703208DF8170043
:1050D000C7E1E7E7FFE7FFE704980078400700280B
:1050E00040F1CE80FFE700208DF8070043F6400036
:1050F000C4F202000068C000002815D4FFE7FFE7F3
:105100000020009043F64000C4F20200016841F024
:1051100080510160006800F0805000900098FFE727
:1051200001208DF80700FFE747F20000C4F20000FD
:105130000068C005002822D4FFE747F20001C4F24E
:105140000001086840F480700860FFF7C7FA039018
:10515000FFE747F20000C4F200000068C005002825
:105160000CD4FFE7FFF7BAFA0399401A032804D3D7
:10517000FFE703208DF8170073E1EAE7FFE7FFE799
:1051800004988068012809D1FFE743F67001C4F252
:105190000201086840F0010008601FE00498806880
:1051A00005280DD1FFE743F67001C4F2020108683B
:1051B00040F004000860086840F0010008600CE05E
:1051C00043F67001C4F20201086820F00100086093
:1051D000086820F004000860FFE7FFE7FFE7049895
:1051E0008068F8B1FFE7FFF779FA0390FFE743F62D
:1051F0007000C4F20200006800F002010020B0EB71
:10520000510F0ED1FFE7FFF769FA0399401A41F2F7
:105210008931884204D3FFE703208DF8170020E18D
:10522000E5E71EE0FFF75AFA0390FFE743F6700048
:10523000C4F20200006800F002010020B0EB510F40
:105240000ED0FFE7FFF74AFA0399401A41F289317D
:10525000884204D3FFE703208DF8170001E1E5E75A
:10526000FFE79DF80700012809D1FFE743F6400159
:10527000C4F20201086820F080500860FFE7FFE7F1
:1052800004988069002800F0E880FFE743F60800F2
:10529000C4F20200006800F00C00082800F08880CA
:1052A000FFE70498806902285FD1FFE76021C4F21C
:1052B000472100200860FFF711FA0390FFE743F64B
:1052C0000000C4F20200006800F000710020B0EBA2
:1052D000516F0CD0FFE7FFF701FA0399401A03283A
:1052E00004D3FFE703208DF81700BAE0E7E704993D
:1052F000C869D1F820C04B6A8A6A40EA0C0040EACB
:105300008310D2034FF6FF739A43A2F58032104305
:10531000CA6A40EA0260096B40EA017043F6040180
:10532000C4F2020108606021C4F247210120086034
:10533000FFF7D4F90390FFE743F60000C4F2020040
:10534000006800F000710020B0EB516F0CD1FFE756
:10535000FFF7C4F90399401A032804D3FFE7032099
:105360008DF817007DE0E7E721E06021C4F24721D6
:1053700000200860FFF7B2F90390FFE743F6000052
:10538000C4F20200006800F000710020B0EB516F21
:105390000CD0FFE7FFF7A2F90399401A032804D3C2
:1053A000FFE703208DF817005BE0E7E7FFE753E036
:1053B00004988069012804D1FFE701208DF81700C7
:1053C0004FE043F60400C4F2020000680290049823
:1053D000806901283AD0FFE7029800F48000049920
:1053E000C969884232D1FFE7029800F03F00049972
:1053F000096A88422AD1FFE7029847F6C07108403F
:105400000499496AB0EB811F20D1FFE7029800F4AC
:1054100040300499896AC9034FF6FF729143A1F5A0
:105420008031884212D1FFE7029800F07060049941
:10543000C96AB0EB016F09D1FFE7029800F0E040C4
:105440000499096BB0EB017F04D0FFE701208DF8D0
:10545000170006E0FFE7FFE7FFE700208DF81700E1
:10546000FFE79DF8170006B080BD000080B584B04E
:105470000290029820B9FFE701208DF80F0071E03B
:105480000298406A60B9FFE702984068B0F5827FF1
:1054900001D1FFE703E002990020C861FFE705E0C2
:1054A00002990020086102994861FFE702990020F3
:1054B0008862029890F8510040B9FFE702990020F5
:1054C00081F85000029800F051F8FFE7029902209D
:1054D00081F8510002980168086820F040000860D7
:1054E000029A019211685068D2F808C0D36800F49B
:1054F00082700CF4044C604403F400631844136994
:1055000003F002031844536903F00103184493693C
:1055100003F400731844D36903F038031844136A82
:1055200003F080031843926A02F4005210430860AB
:10553000029A508B00F004001168526A02F01002C7
:105540001044486002980168C86920F40060C8618E
:10555000029900204865029A012182F851108DF8C5
:105560000F00FFE79DF80F0004B080BD80B588B044
:1055700007900020069005900490039002900798F1
:10558000006843F60001C4F20001884235D1FFE70C
:10559000FFE70020019043F64000C4F202000168DA
:1055A00041F480410160006800F48040019001985E
:1055B000FFE7FFE70020009043F63000C4F202004E
:1055C000016841F002010160006800F002000090F3
:1055D0000098FFE74FF4444002900220039000201F
:1055E0000490032005900520069040F20040C4F28C
:1055F000020002A9FEF78CFEFFE708B080BD0000A4
:1056000080B58EB0DDF840C00C900B910A92ADF8D9
:1056100026300120059000208DF81300FFE70C983C
:1056200090F85000012804D1FFE702208DF83700E0
:10563000A6E10C99012081F85000FFE7FFE7FFF792
:105640004DF806900C9890F851008DF81F000C98BA
:1056500040680890BDF82600ADF824009DF81F00B2
:10566000012812D0FFE70898B0F5827F09D1FFE743
:105670000C98806828B9FFE79DF81F00042804D023
:10568000FFE702208DF813006FE10B9838B1FFE7B8
:105690000A9820B1FFE7BDF8260020B9FFE70120F6
:1056A0008DF8130061E10C9890F85100042805D0A2
:1056B000FFE70C99052081F85100FFE70C990020C5
:1056C00048650A990C9A9163BDF826100C9AD18707
:1056D000BDF826100C9A91870B990C9A1163BDF8AE
:1056E00026100C9AD186BDF826100C9A91860C993A
:1056F00008640C9948640C980068006800F0400049
:10570000402807D0FFE70C980168086840F0400087
:105710000860FFE70C98C068B0F5006F7AD1FFE72A
:105720000C98406828B1FFE7BDF8240001280ED18D
:10573000FFE70C980168006B0088C8600C99086B43
:10574000023008630C99C88E0138C886FFE7FFE76E
:105750000C98C18E0120029039B9FFE70C98C08FD8
:10576000002818BF01200290FFE70298C007002818
:105770004FD0FFE70C98006880688007002818D594
:10578000FFE70C98C08EA0B1FFE70598012810D163
:10579000FFE70C980168006B0088C8600C99086BE3
:1057A000023008630C99C88E0138C8860020059025
:1057B000FFE70C9800688068C007A8B1FFE70C9865
:1057C000C08F88B1FFE70C980068C0680C99896B9E
:1057D00008800C99886B023088630C99C88F013857
:1057E000C88701200590FFE7FEF778FF0699401A69
:1057F000109988420CD3FFE71098013040B1FFE7C1
:1058000003208DF813000C99012081F85100ACE0C1
:105810009EE77CE00C98406828B1FFE7BDF82400C3
:1058200001280ED1FFE70C980168006B007808731F
:105830000C99086B013008630C99C88E0138C88632
:10584000FFE7FFE70C98C18E0120019039B9FFE70F
:105850000C98C08F002818BF01200190FFE7019825
:10586000C007002852D0FFE70C98006880688007C6
:10587000002818D5FFE70C98C08EA0B1FFE7059867
:10588000012810D1FFE70C980168006B00780873BD
:105890000C99086B013008630C99C88E0138C886D2
:1058A00000200590FFE70C9800688068C007A8B149
:1058B000FFE70C98C08F88B1FFE70C980068C068BC
:1058C0000C99896B08700C99886B013088630C996E
:1058D000C88F0138C88701200590FFE7FEF7FEFE5C
:1058E0000699401A1099884204D3FFE710980130B6
:1058F00018B9FFE7109840B9FFE703208DF81300AF
:105900000C99012081F851002FE09BE7FFE70C98EC
:105910001099069A05F026FF38B1FFE701208DF8AF
:1059200013000C99202048651FE00C98806870B91E
:10593000FFE7FFE7002003900C980068C068039021
:105940000C980068806803900398FFE7FFE70C98C5
:10595000406D20B1FFE701208DF8130004E00C99A1
:10596000012081F85100FFE7FFE7FFE70C990020D5
:1059700081F85000FFE79DF813008DF83700FFE72E
:105980009DF837000EB080BD81B0009001B0704727
:1059900081B0009001B0704785B003900291FFE79D
:1059A000039890F83C00012804D1FFE702208DF80D
:1059B00013007EE00399012081F83C00FFE7FFE738
:1059C0000399022081F83D00039800684068019027
:1059D0000398006880680090019820F070000190A2
:1059E0000298016801980843019001980399096899
:1059F0004860039800680021C4F2010188423CD04D
:105A0000FFE703980068B0F1804F36D0FFE70398B6
:105A1000006840F20041C4F2000188422DD0FFE747
:105A20000398006840F60001C4F20001884224D0C7
:105A3000FFE70398006840F60041C4F20001884285
:105A40001BD0FFE70398006840F20041C4F2010157
:105A5000884212D0FFE70398006844F20001C4F2C4
:105A60000101884209D0FFE70398006841F6000170
:105A7000C4F2000188420ED1FFE7009820F08000B8
:105A8000009002984168009808430090009803999C
:105A900009688860FFE70399012081F83D00FFE76E
:105AA0000399002081F83C00FFE700208DF81300E7
:105AB000FFE79DF8130005B07047000080B582B085
:105AC0000090009820B9FFE701208DF807003FE023
:105AD000009890F83D0040B9FFE70099002081F858
