:020000040800F2
:10000000E0AE00205D02000819910008B96F0008F9
:1000100015900008EF200008BDBF00080000000098
:100020000000000000000000000000009D0100082A
:100030003D2D000800000000F90100083D9D00086A
:1000400077020008770200087702000877020008AC
:10005000770200087702000877020008770200089C
:100060007702000877020008872E00087702000850
:100070007D2B00087702000877020008770200084D
:10008000770200087702000877020008770200086C
:10009000F120000877020008770200088D2E000882
:1000A000770200087702000877020008770200084C
:1000B000770200087702000877020008770200083C
:1000C0007702000877020008770200081D990008EF
:1000D00077020008A5A4000877020008770200084C
:1000E000770200087702000877020008770200080C
:1000F00077020008770200087702000877020008FC
:1001000077020008770200087702000877020008EB
:1001100077020008770200080D9E000877020008A9
:10012000892B0008952B0008A12B0008AD2B000897
:1001300077020008770200087702000845210008CE
:100140007702000839210008770200086993000847
:1001500077020008B92B000877020008B1A4000854
:10016000770200087702000877020008770200088B
:1001700077020008770200087702000800000000FC
:100180007702000877020008DFF80CD000F018F9B9
:100190000048004711DA0008E0AE00202C4B196837
:1001A0000868B0E8F04F80F30988BFF36F8F4FF015
:1001B000000080F3118870470000000008480068C4
:1001C000006880F308884FF0000080F3148862B65E
:1001D00061B6BFF34F8FBFF36F8F00DF00BF00BF6B
:1001E00008ED00E0DFF80C00016841F470010160E7
:1001F000704700BF88ED00E0EFF30980BFF36F8F19
:10020000134B1A681EF0100F08BF20ED108A20E96A
:10021000F04F106009B44FF0500080F31188BFF325
:100220004F8FBFF36F8F0EF025FA4FF0000080F371
:10023000118809BC19680868B0E8F04F1EF0100F6B
:1002400008BFB0EC108A80F30988BFF36F8F704746
:1002500010010020EFF3058070470000064880473A
:1002600006480047FEE7FEE7FEE7FEE7FEE7FEE79B
:10027000FEE7FEE7FEE7FEE7FD9D000889010008B6
:100280002DE9F05F0546002092469B4688460646CB
:10029000814640241BE0284641464746224600F05E
:1002A00053F853465A46C01A914110D31146184686
:1002B000224600F03AF82D1A67EB01084F46224615
:1002C0000120002100F031F817EB00094E41201EFB
:1002D000A4F10104DFDC484631462A464346BDE826
:1002E000F09F40EA01039B0703D009E008C9121FF1
:1002F00008C0042AFAD203E011F8013B00F8013BE0
:10030000521EF9D27047D2B201E000F8012B491E0B
:10031000FBD270470022F6E710B513460A460446A2
:100320001946FFF7F0FF204610BD202A04DB203AD3
:1003300000FA02F1002070479140C2F1200320FA38
:1003400003F3194390407047202A04DB203A21FA36
:1003500002F00021704721FA02F3D040C2F12002DE
:100360009140084319467047F0B400F0004221F074
:10037000004120F00040CE0DC30DC1F3160141F441
:100380000001C0F316004C42154640F40000761EF2
:1003900009E010EB440002D582F00042404288425E
:1003A000F7D840005B1EB342F9DA18B1F0BC002167
:1003B00000F021B82846F0BC7047002070470000CC
:1003C000064C074D06E0E06840F0010394E80700A2
:1003D00098471034AC42F6D3FFF7DAFE68CB020838
:1003E00088CB02080029A8BF7047401C490008BFFD
:1003F00020F00100704710B4B0FA80FC00FA0CF055
:1004000050EA010404BF10BC704749B1CCF120048C
:1004100021FA04F411FA0CF118BF01212143084319
:10042000A3EB0C01CB1D4FEA00614FEA102042BF45
:10043000002010BC704700EBC35010440029A4BF3B
:1004400010BC7047401C490008BF20F0010010BCE0
:10045000704770B58C1810F8015B15F0070301D1D7
:1004600010F8013B2A1106D110F8012B03E010F817
:10047000016B01F8016B5B1EF9D12B0705D400233A
:10048000521E0DD401F8013BFAE710F8013BCB1ADC
:10049000921C03E013F8015B01F8015B521EF9D5D1
:1004A000A142D8D3002070BDB0B5E1B14FF0000C2F
:1004B00002EB4C0432F81C300CF1020C64888C45C1
:1004C00023F0030324F0030450F803E00559C5505A
:1004D00040F804E003440444D3F804E065685D6038
:1004E000C4F804E0E4D3B0BD2DE9F0410588984696
:1004F00016460C460746012A0CD1E5B3201D2946B5
:1005000090ED000A0139B1EE400A80ED000A00F1D9
:100510000800F5D1FF2D0CDDB5F5806F10DBB5F5CA
:10052000805F22D0B5F5006F11D0B5F5806F17D080
:1005300021E03F2D10DC102D12D0202D07D01AE025
:10054000B5F5807F03D0B5F5007F0ED013E03846B7
:10055000214600F007F90EE0402D06D0802D0AD18B
:100560003846214600F030F805E07A6820462946F2
:10057000012300F0D1FFB8F1000F04D0BA68B989A7
:100580002046FFF791FF012E1CD100EE105A002DDE
:10059000B8EE400A08BFBDE8F081B7EE001A81EE60
:1005A000000A00BF94ED001A94ED012A013D20EEEF
:1005B000011A20EE422A84ED001A84ED012A04F18A
:1005C0000804EFD1BDE8F0812DE9F0472DED088B4F
:1005D000804600880023D8F8042001EB800A4FEA07
:1005E0005009B3EBD00F00F0AD80C70801EB890CC8
:1005F0000AEB890E7C420027C8190AEB07060CEBB0
:1006000007030EEB0705013496ED000A90ED004A52
:1006100096ED011A90ED015A96ED022A90ED026ACC
:1006200096ED033A90ED037AD5ED000AD5ED011A67
:10063000D5ED022AD5ED033AD3ED004AD3ED015AA8
:10064000D3ED026AD3ED037A34EE00BA37EE038AB3
:1006500036EE029A35EE01AA34EE400A35EE411A22
:1006600036EE422A37EE433A33EEE76A32EEE67A66
:1006700080ED00BA80ED01AA80ED029A80ED038A38
:1006800034EEA0BA35EEA1AA37EEA38A36EEA29ACE
:1006900002EB070071EEE51A70EEE40A07F11007AD
:1006A00083ED00BA83ED01AA83ED029A83ED038AFC
:1006B00090ED008A90ED019A20EE094A21EE085A49
:1006C00021EE091A20EE080A35EE444A30EE010AFE
:1006D00021EE891A20EE885A61EE881A60EE890AA6
:1006E00086ED014A86ED000A35EE010A30EEE11A88
:1006F00085ED010A85ED001A90ED020A90ED031ACE
:1007000022EE014A23EE005A23EE013A22EE002A9D
:1007100035EE444A32EE032A26EE013A27EE005A1D
:1007200026EE000A27EE011A86ED034A86ED022A1C
:1007300035EE032A31EE400A85ED032A85ED020AE3
:100740007FF45AAF08464946022300F0E5FED8F888
:100750000420504649460223BDEC088BBDE8F04713
:1007600000F0DABE2DE9F04F81B02DED088B92B08C
:10077000B0F800C00590406891ED000A91ED011AB3
:100780004FF000094FF0000B4FEA5C0206906FF04B
:1007900001000F9101EB820300EB9C0703EB820544
:1007A000A9EB57006FF0030793ED004A93ED015A50
:1007B00095ED002A95ED013A05EB8204119007EBC7
:1007C000820007EBC20E6FF0070794ED007AD4EDBC
:1007D000010A07EB0216109031EE036A70EE021A5E
:1007E00031EE431A30EE420A0E9602EB420676EEE6
:1007F000052A71EE843A31EE442A30EE053A31EEA4
:10080000041A30EE450A36EE456A71EEC41A07EB5B
:1008100086004FEA9C074FEA860A73EE873A72EE2B
:10082000A02A32EE072A33EE603A31EE471A30EE54
:10083000200A0D9001970293049597000394C1ED4F
:10084000003AC1ED012A83ED003A83ED012A31EE31
:10085000C73A36EE602AD10085ED003A85ED012ACF
:1008600084ED000A84ED011A0024E0E00F9808945A
:1008700007920B915A46CB46109900EB0E0400EB01
:1008800001090D990A97CDF830E0CDF824A0D4EDF8
:10089000002A14ED015ADDF838A0D9ED001A59EDFF
:1008A000017A47180839D7ED010A00EB0A0ED7ED97
:1008B000006A0798AAF1080ADEED014A9EED004A97
:1008C00071EEA03A37EEA69A73EEA25A75EEA45ACC
:1008D000C9ED005A54ED015A9EED008A79EE255A71
:1008E00075EE885A49ED015AD9469346D3ED035A1D
:1008F00093ED028A09F1080902F1180B26EE25AAE8
:1009000027EE08BA27EE257A26EE086A3BEE0AAAF9
:1009100036EE476A32EEE47A85ED02AA85ED036A87
:1009200031EEE06A77EEE60A76EE451A70EE876AF7
:1009300071EE841A66EE887A21EEA5AA66EEA55AB3
:1009400061EE881A7AEE677A71EEA51AC4ED007A24
:1009500044ED011A089CD6ED051AD6ED045A103460
:1009600062EE216A63EE257A23EE213A22EE252AF1
:1009700077EEA66A32EE432A33EEE23ACCED026A13
:100980008CED032A39EE452A33EE643A32EE442ADE
:1009900063EE653A23EE213A62EE212A22EE252A01
:1009A00073EEE22A33EE422AC7ED012A87ED002AD0
:1009B0000A9F90ED072A90ED063A1098083760EEEE
:1009C000021A61EE032A21EE021A20EE030A083809
:1009D00072EEA11A30EE410A37EE601AC8ED021A23
:1009E00088ED030A34EE450A21EE034A21EE021A8D
:1009F00030EE460A20EE025A20EE030A35EE444A53
:100A000030EE010A8EED014A8EED000ADDF830E08D
:100A100010901198AEF1080E013011900D910B99C4
:100A2000CDF838A0DDF824A008310AF1080A0F9BA0
:100A3000119803EB090203EB010CDD1903EB0A0823
:100A4000069B00289CED020A92ED022A95ED024ACF
:100A500098ED026A9CED031A92ED033A95ED035A64
:100A600098ED037A03EB040672EE000A73EE013A86
:100A700033EE411A32EE400A70EE841A31EE042A47
:100A800070EEC40A30EE453A31EE444A71EE861AF1
:100A900033EE071A30EEC63AC2ED021AD5ED031A4C
:100AA000D8ED032A73EEA11A71EEA21AC2ED031A51
:100AB00073EEC51A30EE055A32EE460A03EB0B020E
:100AC0004B4434EE066A31EEC72A35EE477A7FF49E
:100AD000CDAE93ED024A93ED035A0F98042367EECF
:100AE000050A66EE041A26EE055A27EE044A34EE8D
:100AF000054A31EEE06A85ED024A85ED036A019D03
:100B000096ED044A96ED055A294623EE056A22EE33
:100B1000047A23EE043A22EE052A33EE022A37EE57
:100B2000464A8CED022A8CED034A92ED062A92ED9C
:100B3000073A069A21EE034A20EE025A21EE021AE3
:100B400020EE030A31EE000A35EE442A88ED020A4F
:100B500088ED032A00F0E0FC059C02982946042356
:100B6000626800F0D9FC626804982946042300F00A
:100B7000D3FC626803982946042312B0BDEC088BAD
:100B800001B0BDE8F04F00F0C7BC00002DE9F04116
:100B90002DED028B0446002090460D46B0EB920FDF
:100BA0006DD04FEA9800474294ED000A94ED011A87
:100BB00021EE011A20EE000A30EE018AB0EE480A5A
:100BC0000CF0A8FBB4EEC00AF1EE10FA03D7B0EEB9
:100BD000480A0CF09FFB85ED000A94ED020A94EDA3
:100BE000031A21EE011A20EE000A30EE018AB0EE5F
:100BF000480A0CF08FFBB4EEC00AF1EE10FA03D7EE
:100C0000B0EE480A0CF086FB85ED010A94ED040A6B
:100C100094ED051A21EE011A20EE000A30EE018A49
:100C2000B0EE480A0CF076FBB4EEC00AF1EE10FA12
:100C300003D7B0EE480A0CF06DFB85ED020A94ED87
:100C4000060A94ED071A21EE011A20EE000A30EE92
:100C5000018AB0EE480A0CF05DFBB4EEC00A05F163
:100C600010062034F1EE10FA03D7B0EE480A0CF06B
:100C700051FB85ED030A0137354695D100E02E463C
:100C800018F003001ED0454294ED000A94ED011ABD
:100C900021EE011A20EE000A30EE018AB0EE480A79
:100CA0000CF038FBB4EEC00A371DF1EE10FA03D792
:100CB000B0EE480A0CF02EFB86ED000A0834013530
:100CC0003E46E1D1BDEC028BBDE8F0819FED241AD8
:100CD000B5EE002A44F264430021B7EE004AC0F6A4
:100CE000010320EE010A30EE020ABDEEC01AB5EE95
:100CF000C00A11EE100AF1EE10FA9FED1A1AB8BFF1
:100D0000013802EE100AB8EEC22A30EE420A9FED18
:100D1000162A20EE010ABDEEC01A11EE100A30EEBE
:100D2000021A0246B1EB502F18BF002202EE102A21
:100D300003EB8203B1EB502F18BFB0EE410AB8EEBF
:100D4000421A93ED002A93ED013A30EE410A34EE57
:100D5000401A20EE030A21EE021A31EE000A704713
:100D600083F9223E00000044000000C480B5B0F8C2
:100D700000E00B889E4555D1B0F802C04B889C45D9
:100D800050D113889E454DD153889C454AD1526815
:100D9000496840680CFB0EFC0023B3EB9C0F2BD082
:100DA0004FEA9C035B4200BF91ED000A90ED001AF0
:100DB000013331EE000A82ED000A91ED010A90ED57
:100DC000011A31EE000A82ED010A91ED020A90ED5E
:100DD000021A31EE000A82ED020A91ED030A90ED4B
:100DE000031A01F1100100F1100031EE000A82ED4A
:100DF000030A02F11002D7D11CF0030310D05B42AA
:100E000091ED000A90ED001A013301F1040100F1A7
:100E1000040031EE000A82ED000A02F10402EFD173
:100E2000002000E0FD2040B280BD43604280018090
:100E3000704700002DE9F04F8BB0B0F802E0B0F839
:100E400000B0F34540F052810B88FD229B4540F0F5
:100E50004E814F88BB4240F04A814768BBF1000F8A
:100E600000F02C814C686FF00300009700274FF0D2
:100E70007E595E46CDF81CE000EB8B0820460694B8
:100E8000BBEB060008D0B9002046FFF743FA00206C
:100E9000013004348742FBD104F1040A751EC4F802
:100EA00000900FD0A8EB87015046FFF733FA0120DE
:100EB000544600BF013004348642FBD10137002D77
:100EC0002E46DDD1009FDDF81CE0BBF1000F00F0E5
:100ED000F580042039469FED8A0A07EB8E0C3B1DF6
:100EE0004FEA8E05ABF101047746CDF814B000EB64
:100EF0008E0089460190CEF100000890002000BFCE
:100F0000584580F0F880069A00FB0EF16646B0EE78
:100F1000403A02EB810209EB810191ED001A09913F
:100F200021460A92B0EE414A07E000BF96ED004A22
:100F300072190139B0EE423A1646B5EEC04AF1EEEA
:100F400010FA09DDB4EEC34AB0EE442AF1EE10FA0D
:100F5000D8BFB0EE432A08E0B1EE442AB4EEC23A5C
:100F6000F1EE10FA01DBB0EE432A0029DED1B5EE36
:100F7000402AF1EE10FA00F0BE80B0EEC13AB4EEB5
:100F8000423AF1EE10FA1CBFC14311EB0B0104D041
:100F9000002100BF01318C42FCD1B5EE401AF1EEC8
:100FA00010FA00F0A880CDE9034CAEEB000C4FF036
:100FB0007E51099ABCF1010F11600AD001211A4635
:100FC00092ED002A01318F4282EE012AA2EC012A21
:100FD000F6D108990A9A00BF92ED002A013182EEFB
:100FE000012A82ED002A02F10402F5D10599DDF80B
:100FF00018A0ACF1010B4FF000084E46CDF8089058
:10100000804505D10AEB8E0A06EB8C0638E000BF5E
:10101000099A96ED001ABBF1000F92ED002A21EE1D
:10102000022A31EE422AA6EC012A16D0012200241F
:1010300003EB040906EB040E0132043499ED002A97
:101040009EED003A974221EE022A33EE422A8EEDBF
:10105000002AEDD1DDF81CE02644089A0A9C00BF66
:1010600094ED002A9AED003A013204F1040421EED5
:10107000022A33EE422A8AED002A0AF1040AEFD14D
:1010800006EB800608F101080139B9D1039CDDF8AF
:1010900008900199DDF810C0DDF814B00130013F6F
:1010A0000B448C44A4F1010409F104097FF428AF36
:1010B000B5EE401A009FF1EE10FA1ED10EFB0BF1B7
:1010C0000020002259B100BF97ED000AB5EE400A9A
:1010D000F1EE10FA03D1013204378A42F4D38A4286
:1010E00008BF6FF004000BB0BDE8F08FFD2250B2D6
:1010F0000BB0BDE8F08FFB22F9E70022F7E700BF55
:10110000000000002DE9F04F89B046880B889E4210
:1011100040F08E80058813889D4240F08980B1F8A8
:1011200002E053889E4540F0838000234468526863
:101130004968B7089FED410AA3EB9600089026F096
:101140000300029206F00302019104EB800B07FBFF
:101150000EF001EB00104FEA8E0100905042079014
:10116000CDE903E6029806950593DDE900AC00EBB6
:10117000830800BF002FB0EE401AE14620462FD072
:10118000089D63462046B0EE401A00BF5E1893EDFE
:10119000002A90ED003A90ED014A90ED025A90ED50
:1011A000036A1030013596ED007A06EB010323EE59
:1011B000022A93ED003A0B4431EE021A93ED002A15
:1011C00024EE074A0B4431EE041A25EE033A31EEC1
:1011D000031A26EE022A31EE021AD7D1D14658461A
:1011E0006AB1079D99ED002A90ED003A89440135D6
:1011F00000F1040023EE022A31EE021AF2D188ED4A
:10120000001A0AF1040A0CF1040CBEF1010E08F1F7
:101210000408AFD1049E069DDDF80CE0059B0BEBA6
:10122000860B04EB86047344013D9BD1002000E053
:10123000FD2040B209B0BDE8F08F00BF0000000003
:1012400080B5B0F800E00B889E4555D1B0F802C0DB
:101250004B889C4550D113889E454DD153889C4561
:101260004AD15268496840680CFB0EFC0023B3EB7E
:101270009C0F2BD04FEA9C035B4200BF91ED000A0C
:1012800090ED001A013331EE400A82ED000A91ED33
:10129000010A90ED011A31EE400A82ED010A91ED4A
:1012A000020A90ED021A31EE400A82ED020A91ED37
:1012B000030A90ED031A01F1100100F1100031EE64
:1012C000400A82ED030A02F11002D7D11CF0030399
:1012D00010D05B4291ED000A90ED001A013301F14C
:1012E000040100F1040031EE400A82ED000A02F12F
:1012F0000402EFD1002000E0FD2040B280BD0000DC
:101300002DE9F04F82B0B0F800E04B889E454BD1FC
:1013100044880B889C4247D100234E6804F0030B9D
:1013200040684FEA0E184FEA940AA3EB9401CBF100
:10133000000901914FEA8E0132460096BAF1000F82
:101340001CD0019F344600BF2546046801372C603D
:1013500044686C5005EB0104D0F808C044F801C0A3
:101360000C44C26800F11000625004EB010202EB71
:101370000104E9D105EB080703E000BF009A02EB86
:101380008307BBF1000F07D04D4600BF50F8042B78
:1013900001353A600F44F9D10436BEF1010E03F174
:1013A0000103CBD1002000E0FD2040B202B0BDE837
:1013B000F08F0000F0B54C1E4FF0000C90ED000ACD
:1013C00000F1040EBCEB940F40D0A708012625467F
:1013D0004FF0000C66F301057E4204279EED001AD3
:1013E0009EED012A9EED023A9EED034A01360EF172
:1013F000100EB4EEC10AF1EE10FABCBFA7F1030C57
:10140000B0EE410AB4EEC20AF1EE10FABCBFA7F189
:10141000020CB0EE420AB4EEC30AF1EE10FABCBF01
:10142000A7F1010CB0EE430AB4EEC40AF1EE10FAD3
:10143000B4EEC40AB8BFBC460437F1EE10FAB8BF28
:10144000B0EE440A002EC9D100EB850E14F0030063
:1014500012D040429EED001A0EF1040EB4EEC10A05
:10146000F1EE10FAB8BF01EB000C00F10100B8BFBB
:10147000B0EE410A0028EDD182ED000AC3F800C0A9
:10148000F0BD00004FF0000CBCEB930F2DD04FEAE5
:10149000930CCCF1000C00BF91ED000A90ED001A06
:1014A0001CF1010C21EE000A82ED000A91ED010A07
:1014B00090ED011A21EE000A82ED010A91ED020A77
:1014C00090ED021A21EE000A82ED020A91ED030A64
:1014D00090ED031A01F1100100F1100021EE000A55
:1014E00082ED030A02F11002D6D113F0030308BF04
:1014F00070475B4291ED000A90ED001A013301F153
:10150000040100F1040021EE000A82ED000A02F15C
:101510000402EFD1704700002DE9F04F81B02DEDAE
:10152000108BA0B09FED050ACDE903328C460190E7
:1015300004301B910290084602E000BFF304353FDF
:101540004FEADC064FEACC074FF0000BF30006EB46
:10155000860235010896A3EBDC00D100C0001A908A
:1015600006EB46007601C40000012246029CCDE94C
:101570001E7CCDE90C01CDE91C6500BF0C9804EB85
:1015800003091F461A9B04EB01082644254404EB7B
:10159000020E14ED017ADDF87CC0114656ED010A09
:1015A0001EED012A18ED013A19ED014A15ED016A07
:1015B00004EB030A20443B46E3441AED011A10ED04
:1015C000015A77EE204A74EE032A37EE607A72EE03
:1015D000011A76EE053A32EE411A34EE432A36EE1F
:1015E000455A72EEA15A74EEA36A34EEE33A72EEF3
:1015F000E11A76EEA57A76EEE55A44ED017A46EDEB
:10160000015ADAED005ADEED006AD8ED007A99ED64
:10161000008A90ED009A95ED00AA96ED00BA94ED3F
:1016200000CA36EEA5DA38EE27EA3AEE09FA7CEE81
:101630000B8A36EEE54A78EE673A72EE415A32EEA0
:10164000011A3CEE4B6A7EEE0D9A78EE8FAA3EEEC2
:101650004DDA73EE842A78EECF6A65EE800A33EEB7
:10166000C42A21EE001A7AEEA9BA73EE0D4A7AEE78
:10167000E99A33EE4D3A62EE802A76EEE15A71EE47
:10168000A61A22EE002A37EE604AC4ED00BAC6ED73
:10169000009A45ED014A7AEE494A00ED013A37EEEB
:1016A000203AC5ED005AC0ED001A76EE021A36EE69
:1016B000422A74EEA27A34EEE27A73EE275A33EEBF
:1016C000673A74EE070A34EE474A49ED015A0AEDCB
:1016D000013A35EE013A48ED010A0EED014A35EEC8
:1016E000411A31EEC37A33EE213A32EE414A31EEFD
:1016F000021A89ED007A8AED003ADDE91C651E9F29
:101700001B980D9988ED004A8EED001A3C448345E4
:10171000FFF434AFBCF1400FC0F0C9810398DDF88D
:1017200004800025012707920E9380B20690089846
:10173000C0EBC000C00005900698049CCDF8248042
:101740000A97DFEDDE2A054405EB850305EB45022C
:101750000B95D900D00004EBC3030431043004EB33
:10176000010E04EB451104EB000CC5EBC50091ED37
:10177000000A04EB0511DCED006AC446DEED005AF8
:10178000DDF81C808DED1A0A91ED000A04EBC5010D
:101790008DED190A91ED000A04EBC001C000043080
:1017A0008DED180A91ED000A04EB021120448DED35
:1017B000170A91ED000A110104EBC20204318DED0C
:1017C000160A93ED000AEB0004EB010969010433EA
:1017D00004318DED150A92ED000A2A0123440432EA
:1017E00022440C448DED140A94ED000A8DED130A89
:1017F00092ED000A8DED120A93ED000A3B468DED45
:10180000110A90ED000A8DED100A99ED000A8DED98
:101810000F0ADDE90C15059F1D980CEB060B0CEB70
:1018200001090CEB05020CEB070E9CED02DA9CEDB6
:1018300003EADDED1A3ADDED134A1C9E9BED02FA38
:10184000DEED027A92ED029A99ED02BA0CEB000AF3
:101850000E989AED02CA7DEE0FBA0CEB00040CEB69
:10186000080090ED028A94ED02AA7CEE0BAA7BEEB2
:10187000AADA78EE278A7AEE099A78EE677A3AEE53
:10188000498A79EEA8CA38EE670A78EE277A79EEA7
:10189000E88A7DEEACEA7DEEECCA20EE220A67EE25
:1018A000A27ACCED02EA63EEAC0A64EEACCADBEDE0
:1018B00003DA9EED039A90ED03AAD2ED03EAD4ED8C
:1018C00003FA99ED031A9AED032A32EE013A3EEE3D
:1018D0002D4A7AEE099A3FEEAE8A32EE411A38EE80
:1018E000295A34EE036A34EE433A38EE698A3BEE05
:1018F000EA4A36EE457A36EE055A3AEE496A3FEE46
:10190000EE9A39EE46AA64EE871A39EE066A23EE9D
:10191000877ADDED124ADDED193A8CED035A34EE8B
:10192000085A3DEE4F9A34EE484A26EE222A37EE08
:101930006C6A30EEA17A73EE680A7CEE4B1A38EED0
:10194000833A3EEE6DCA2AEE22AA39EE008A39EEBB
:10195000400A24EE85BA23EEA0DA23EE855A64EE1F
:10196000A00ADDED0F4ADDED163A8BED027A8BED24
:10197000036A31EE02EA31EEA77A31EE421A31EE15
:10198000E72A7CEE4A1A3DEE4B6A30EE855A3CEE71
:101990000ABA38EE0EFA38EE4E8A70EE017A30EE60
:1019A000410A32EE211A64EE840A23EE83DA8AEDCC
:1019B000025A23EE844ADDED183A24EE833A7BEE98
:1019C000478A8AED036A37EE0B7A3DEE605ADDED09
:1019D000110A33EE043A23EEA86A23EE8FDA89ED7A
:1019E000023ADDED103A89ED035A20EE8F4A60EE9F
:1019F000A80A36EE443A3DEE204ADDED170A23EE02
:101A0000885A84ED024A84ED033A20EE876A60EE3C
:101A1000880A23EE877A31EEC28A30EE874ADDEDFE
:101A2000150A36EE453A25EEA75A25EE887A8EED50
:101A3000024A8EED033A26EE804A20EE886A60EE76
:101A4000A70A36EE452A9DED146A30EE873A82EDFC
:101A5000023A82ED032A26EE015A26EE811A26EE7C
:101A6000000A30EE010A35EE442A80ED020A80EDCC
:101A7000032A1E9884441F9803441B988342FFF452
:101A8000CBAE0A9FDDF8248008980B9D013708F142
:101A900008088742FFF450AE0398DDF820C09FEDA0
:101AA000070AC00003901F983F283FF649AD20B0B9
:101AB000BDEC108B01B0BDE8F08F00BFF304353FE3
:101AC00080B59FED441A9FED443A44F2644C9FED7B
:101AD000437AF0EE087AB5EEC00AC0F6010CF1EEDA
:101AE00010FA20EE011AB0EEC11ABDEEC12AB8EE0E
:101AF000C22A31EE421A21EE031ABDEEC12A12EEBD
:101B0000102A02F180036FF35F226FF35F230CEB67
:101B1000820E00EE902A0CEB83039EED013A9EEDBF
:101B2000002AF8EE600A93ED004A93ED015A31EE77
:101B3000601AB1EE436A73EE421A72EE024A74EE14
:101B4000052A36EE426A74EE043A75EE445A33EED4
:101B5000243A71EEA16A61EEA71A35EE235A62EEBD
:101B6000872A26EE076A75EEA53A23EE073A72EE4B
:101B7000E60A25EE075A36EE636A65EEA72A61EE9D
:101B8000200A31EEC55A32EE833A21EE066A33EE70
:101B9000063A35EE205A24EE076A22EE077A21EE45
:101BA000055A21EE033A36EE055A33EE473A21EE56
:101BB000055A21EE031A32EE052A34EE011AB1EE6F
:101BC000423A81ED001AB8BFB0EE432A80ED002AF8
:101BD00080BD00BF610B363B00000044DB0F493C79
:101BE00010B52DED048BB0EE418AB0EE609AF0EEA8
:101BF000480A00F022F8F0EE408AF0EE480AB0EE13
:101C0000490A00F01AF8F6EE000A38EEC00A68EE4B
:101C1000200AB4EEE00AF1EE10FA04DD30EE480AD4
:101C2000BDEC048B10BDF1EE600AB4EEE00AF1EEFB
:101C300010FAF5D230EE080AF2E710B52DED028B5E
:101C4000B0EE608AB4EEC80AF1EE10FA07DDF0EEED
:101C5000480ABDEC028BBDE810400AF009BFB5EEA2
:101C6000C00AF1EE10FA05D2F0EE480A0AF000FFC1
:101C700030EE080ABDEC028B10BD000001221021DD
:101C8000014802F089BF000000000240002210213C
:101C9000014802F081BF000000000240012211460D
:101CA000014802F079BF0000000402400022012137
:101CB000014802F071BF00000004024070B5054603
:101CC000FFF7E4FF922000F031F906226549122067
:101CD00000F00EF9FFF7D2FF624CA4F11C06607809
:101CE0002178000200B2084300EE100AD6ED030A84
:101CF000B8EEC00A60EE200A95ED080A60EE800A90
:101D0000C5ED000AE078A178000200B2084300EEB9
:101D1000900A96ED031AF8EEE00A60EE810A60EE92
:101D2000800AC5ED010A60792179000200B20843FA
:101D300000EE900A3081F8EEE00A60EE810A20EEB3
:101D4000800A85ED020AFFF7B1FF08222146002034
:101D500000F0CEF8FFF7A2FF20780F285AD1F078D4
:101D6000A1780028E0784FEA002000B240EA0100A4
:101D70002BD000EE100AD5ED090AB8EEC01A96ED88
:101D8000040A51EE000AC5ED030A607921790002C8
:101D900000B2084300EE900A95ED0A1AF8EEE00A48
:101DA00010EE801A85ED041AE079A179000200B2E4
:101DB000084300EE900A308195ED0B1AF8EEE00A28
:101DC00010EE801A85ED051A24E000EE100AF8EEF8
:101DD000C00A96ED040A60EE800AC5ED030A607938
:101DE0002179000200B2084300EE900AF8EEE00A02
:101DF00060EE800AC5ED040AE079A179000200B224
:101E0000084300EE900A3081F8EEE00A20EE800AE6
:101E100085ED050AFFF73AFFA22000F087F80222BD
:101E20001049222000F064F8FFF728FF207861783D
:101E3000C00040EA51103081B0F5806F02DBA0F5A0
:101E400000603081B6F90800B4EE001A00EE100A06
:101E5000F8EEC00AB3EE070A00EE810A85ED070A24
:101E600070BD0000E000002070B50D461749184C09
:101E700008600020A0700BF09DFCA1780843A070C2
:101E80000BF02CFDA1780843A0701DB1114800F0A3
:101E9000C7F918E00F489FED100A80ED090A9FED81
:101EA0000F0A80ED0A0A9FED0E0A80ED0B0A9FEDE6
:101EB0000D0A80ED0C0A9FED0C0A80ED080A9FEDDB
:101EC0000B0A80ED060AA07870BD00000C0100200E
:101ED000C4000020D4650020E7E099BA9E2548BBE5
:101EE000BD370638F93F1B41F268813F00002842A8
:101EF00070B514460D4640F0800000F017F806E07B
:101F0000552000F013F8641E05F8010BE4B2002C14
:101F1000F6D170BD10B50C4640F0800000F006F818
:101F2000552000F003F8207010BD000001B582B00C
:101F30004FF47A7000900548012301AA02A90068B5
:101F400004F05AF89DF804000EBD00000C010020BA
:101F500010B50C46FFF7EAFF2046BDE81040FFF73A
:101F6000E5BF00008AB00BF0E5FD0890182102A83B
:101F7000FEF7D0F900250126204C00950827B04631
:101F80000195012108A80BF0C9FD0697012E02D08A
:101F9000022E0CD013E040F206200290206B00B11C
:101FA00001208DF800008DF80180022607E040F244
:101FB00007208DF8008002908DF80150012694F8DA
:101FC00064008DF80200206800B101208DF8030044
:101FD00094ED110A09AB6A46BDEEC00A10EE100A74
:101FE000010A8DF804108DF805008DF806508DF863
:101FF000075002A9024801F02DFEC2E7543D00201F
:1020000054380020B6EE000AD2ED020AF0EE401A73
:1020100092ED031A40EEE01A90ED002AD2ED012A6B
:10202000D0ED013A22EEA03A41EE411A21EE822A89
:10203000D2ED001A01EEC13A22EE811A01EEA01A89
:1020400003EE232AD0ED020AF0EE001A01EE202A58
:1020500062EE210AC1ED000A92ED011AD2ED023AB8
:1020600092ED002AD2ED030A61EE232A90ED003AA8
:1020700090ED014A42EE202A62EE832AB0EE403A09
:1020800001EE413A00EEE03A63EEA00A42EE410A68
:1020900043EE042A90ED021A40EE812A62EEA10A74
:1020A000C1ED010A92ED011AD2ED032AD2ED020A26
:1020B00092ED003A21EE222A60EEA22AD0ED003AFB
:1020C00001EE410A03EE602A43EE012A90ED013A47
:1020D00000EEE00A22EE232AD0ED020A02EE832A65
:1020E00000EE202A22EE210A81ED020A7047FEE767
:1020F000014801F00EBF00002C38002000B58BB065
:102100000C4802F087F900200121CDE90601059075
:10211000009001900290039004900E20CDE90810E9
:102120006946044801F0F4FD0221024801F080FDF7
:102130000BB000BD2C380020014801F0EABE0000C1
:1021400054380020014801F0E4BE0000543800205B
:1021500000B58BB00E4802F05DF9002003AB009093
:10216000019001210E22029083E80700CDE90601CB
:10217000CDE9081206486946283801F0C9FD00B1CA
:10218000FEE71021024801F053FD0BB000BD000036
:1021900054380020002070470020704710B50022FE
:1021A0000449054808F06AFB0449034808F059FB54
:1021B000002010BD685500208C480020684D00208C
:1021C00010B50446014620220748FEF78AF8002091
:1021D00007F02CF82146054808F043FB034808F0B7
:1021E00019FB002010BD0000706500208C48002005
:1021F00000207047094A10B5D2F8BC22D2F8142248
:102200000AB1012010BD0A460146044808F036FB19
:10221000BDE81040014808F0ABBB00008C4800202E
:102220002DE9F04F04462DED048B89B0002000907D
:10223000019002F0B7FCEA4D42F2107B02AE0DF1C4
:1022400014084FF07C5ADFF89C93686102F0AAFCF6
:102250006969411A594514D99FEDE30A84ED090AC9
:102260009FEDE20A84ED0A0A9FEDE10A84ED0B0A74
:102270009FEDE00A84ED0C0A9FEDDF0A84ED060A6B
:1022800089E1052002F0C6FA9FEDDC0A002784ED03
:102290000C0A84ED090A84ED0A0A84ED0B0AF9E0C0
:1022A000FFF7F4FC9220FFF741FE06226946122058
:1022B000FFF71EFEFFF7E2FC9DF801009DF80010FD
:1022C000000200B2084300EE100AF8EEC00A95EDD5
:1022D000030A60EE801AC4ED001A9DF803009DF811
:1022E0000210000200B2084300EE100AD5ED030A06
:1022F000B8EEC00A20EE201A84ED011A9DF8050000
:102300009DF80410000200B2084300EE100AB8EE77
:10231000C00A60EE200A21EEA10AC4ED020A01EE15
:10232000010A00EEA00A0AF0F5FFB0EE408A94ED33
:102330000C0A30EE080A84ED0C0AFFF7B7FC0822FD
:1023400069460020FFF7D4FDFFF7A8FC9DF80000C8
:102350000F2840D19DF803009DF80210000200B242
:10236000084300EE100AF8EEC00A95ED040A60EE8C
:10237000800AC4ED030A94ED091A71EE200AC4ED37
:10238000090A9DF805009DF80410000200B20843F8
:1023900000EE900AF8EEE00A60EE800AC4ED040A4E
:1023A00094ED0A1A71EE200AC4ED0A0A9DF807009E
:1023B0009DF80610000200B2084300EE900AF8EE05
:1023C000E00A20EE800A84ED050AD4ED0B0A30EE17
:1023D000800A84ED0B0A002F7ED0B4EEC98AF1EE9C
:1023E00010FA01DDB0EE489AB4EEE88AF1EE10FA88
:1023F00001D2F0EE488A00204FEA080204EB800187
:1024000091ED030A06EB8001D1ED000AB4EEE00A7B
:10241000F1EE10FA01DD81ED000A02EB8001D1ED51
:10242000000AB4EEE00AF1EE10FA01D281ED000AE2
:10243000401CC0B20328E1D339EE680A00204246AE
:1024400085ED060A4FEA090106EB8003D3ED000A89
:1024500002EB800393ED001A01EB8003401C70EE49
:10246000C10AC0B20328C3ED000AEDD310EE100A72
:10247000504513DC62480A6882420FDC4A68824297
:102480000CDCD9F80810814208DC012002F0C2F906
:102490007F1CBFB2E8888742FFF402AFE988D4ED21
:1024A0000C0A00EE101A2F465FF00000B8EE400A4A
:1024B00080EE801A84ED0C1A00EE101A04EB8002F4
:1024C000401CB8EE400AD2ED090AC0B2032880EEE3
:1024D000801A82ED091A00E06AE0EDD3FFF7D6FB1F
:1024E000A220FFF723FD022269462220FFF700FD0C
:1024F000FFF7C4FB9DF800009DF80110C00040EA02
:102500005110B0F5806F01DBA0F5006000EE100AFD
:10251000B4EE001AF8EEC00AB3EE070A00EE810A24
:1025200084ED060AB888401CB880B86950453FF76A
:102530008DAE94ED0C0ADFED330A30EE600AB0EE9A
:10254000C00A10EE100A5045F1DC2D4AD9F80010EF
:1025500048469142EBDC41689142E8DCD9F808003A
:102560009042E4DC94ED090A2748B0EEC00A10EE70
:10257000101A8142DBDC94ED0A0AB0EEC00A10EEBC
:10258000101A8142D3DC94ED0B0AB0EEC00A10EEB3
:10259000101A8142CBDC94ED0C0ADFED1C0A80EEB0
:1025A000801A84ED081A09B0BDEC048BBDE8F08FE9
:1025B000B0EE489AF0EE488A0020414604EB8002D3
:1025C00092ED030A06EB800282ED000A01EB800225
:1025D000401CC0B282ED000A0328EFD32CE70000B4
:1025E000C4000020C8650020E7E099BA9E2548BBDA
:1025F000BD370638F93F1B410000284200000000AB
:102600009A99193ECDCC1C410AD7233CC3F51C41F5
:10261000704770477047000000B518212DED028B00
:1026200089B0B0EE408A6846FDF774FE40F2FF10B4
:102630000090BDEEC80A082000210490079110EE1A
:10264000100A8DF81C1006918DF81D10010A8DF8E6
:102650001E108DF81F0008AB06AA6946034801F05A
:10266000F9FA09B0BDEC028B00BD0000543800201F
:10267000884201DD084670479042FCDA10467047F8
:10268000B4EEE00AF1EE10FA02DDB0EE600A704737
:10269000B4EEC10AF1EE10FAF9D2B0EE410A704779
:1026A0002DED028B82B00BF045FA009006F022FD72
:1026B00006F0A4F807F05CF807F024F92C4C2D4F35
:1026C000002525603D606560256365633B20A5634B
:1026D00084F83C004FF001089FED278AC4F8408041
:1026E00084ED118A84ED138A84ED128A84ED148AB4
:1026F00084ED168A84ED158A002104F10800C4F8DF
:10270000648006F051F8002104F11C0006F04CF83A
:102710001A4E0A2168460BF001FA02F043FAF17AE8
:10272000012901D0022905D1B269801A642801D299
:102730003868A0B12560012914D0022915D084ED94
:10274000118A0F4884ED138A84ED168A90ED4A0AA7
:1027500084ED150A656025636563A563D9E7C4F850
:102760000080E8E700F0F0F8D3E700F00BF8D0E7DE
:10277000543D00202C000020000000008C6400204C
:10278000BC3D00202DE9F04164482DED028B06F0A0
:1027900012F89FED638A6149002620399FED610A96
:1027A0000125614C012829D0A6630868D4ED150ADB
:1027B000404201EE100A5D4840F26A42B8EEC11A8A
:1027C00041EE000AC4ED150A006AA0F5A850F438DD
:1027D00090420BD84868D4ED160A404201EE100A28
:1027E000B8EEC11A41EE000AC4ED160AF0EE488AAE
:1027F0004F4805F0E0FF012826D027E0A06B18B96C
:1028000084ED178A84ED188AA563086894ED171A79
:10281000404200EE900AF8EEE00A60EE801ADFED2A
:10282000450A01EEA01A84ED171A486894ED181AAB
:10283000404201EE900AF8EEE11A21EE800A00EE25
:10284000201A84ED181AD1E79FED3B8A38481430DE
:1028500005F0B1FF012803D19FED380A38EE008A58
:10286000334884ED118AC4ED138A503005F0A3FF7C
:102870000227032803D1606E022807D067662C4820
:10288000643005F098FF032803D006E0032060665B
:10289000F5E7606E022807D067662548B43005F07A
:1028A0008AFF032802D005E06566F6E7206B40B199
:1028B000002020631948143805F07DFF012802D05C
:1028C00004E00120F5E7206B012806D066631C4870
:1028D00005F071FF032802D00AE06563F7E794F87A
:1028E0003C003B2814D06D2814D03B2084F83C00D9
:1028F0001348143005F05FFF032805D11148016823
:10290000532909D053210160BDEC028BBDE8F08151
:102910006D20EBE79E20E9E7E921F4E788A9002094
:1029200000000000CDCC4C3D543D0020183F00205D
:102930009CA90020CDCCCC3D01007042010070C2AA
:10294000B4AA0020B80000202DE9F041554D688858
:10295000A0F5806000EE100AB8EEC01A9FED520A92
:10296000C1EE000A9FED511A514C60EE810AC4ED90
:10297000110ADFED500AC4ED130AA06B88BBA888CA
:10298000C0F5806000EE900AF8EEE00A80EE801A52
:10299000DFED490A21EE201AD4ED150ADFED471AC2
:1029A00041EE210AC4ED150AE8880146A0F58060D1
:1029B000002808DD00EE900AF8EEE00A80EE801AAA
:1029C0009FED3F0A09E0C1F5806000EE900AF8EE45
:1029D000E00A80EE801A9FED3B0A21EE000A84EDAA
:1029E000160A394832492A880126D0F800C0496EB3
:1029F0000223A2F58062B2F5C87F03DDBCF1030FAC
:102A00000AD00CE0032712F5C87F03DABCF1030FEC
:102A100009D00BE007600AE0032902D06666066071
:102A200005E06366FBE7012909D067660360288932
:102A3000A0F58060B0F5FA7F03DD012102E0636656
:102A4000F4E70021616010F5FA7F01DA012000E06F
:102A50000020A063A87A012800D00020E06014487C
:102A6000083005F0A8FE032803D1206B68B10020D0
:102A70002063A87A02280AD0002020620C481C306B
:102A800005F099FE012804D006E00120F0E70120BE
:102A9000F3E7206B012803D000206063BDE8F081DC
:102AA0006663FBE78C640020000025440000484377
:102AB000543D0020000000000000F0420AD7233CF3
:102AC000007CDD4100C8AFC13400002030B40C4BA5
:102AD000002200BF02EB420453F834505DB103EB17
:102AE000C4046468844206D102EB420053F830000B
:102AF00030BC00F007B8521C042AEBDB30BC704736
:102B0000E464002010B50446806B0A78DFED180AF3
:102B100012094261B1F80100DFED171A40BA2062D4
:102B2000C8780A79000140EA121000EE100AB8EEE7
:102B3000400A60EE200A9FED0F0A20EE801AC1EED7
:102B4000210A20EE800ABDEEC00A84ED060A0A7949
:102B5000487902F00F0240EA022020618879C979A1
:102B6000884200D80846606302F01CF8E06310BD9C
:102B70000000803900007042F90F4940014801F01F
:102B8000D7BC0000EC3B0020014801F0D1BC0000A4
:102B9000D4380020014801F0CBBC00004C3C0020A0
:102BA000014801F0C5BC00008C3B0020014801F049
:102BB000BFBC000034390020014801F0B9BC00005E
:102BC000AC3C002001681823CAB2103AB2FBF3F201
:102BD000054B6FF30901032A9B5CC36500D9091DEE
:102BE000816508467047000034EC000810B50146C6
:102BF00000208B698A6A4FF0C07453B1B3F5005F4F
:102C000015D072B1012A0CD0022A0AD0032A09D1A8
:102C100004E01AB1012A06D0022A03D1C96AC90107
:102C200000D5012010BDC96AA142FAD010BD002A0A
:102C3000F7D0012AF2D0022AF3D0032AF3D010BD34
:102C400030B50468256825F4802525600468636034
:102C50008368402B036803D099600068C26030BD70
:102C60009A600068C16030BD2DED048B88B00AF019
:102C700061FF2A4D002607909FED290A2E6085ED01
:102C8000010A06F09DF906F0C7F91C22254968469D
:102C9000FDF727FB002168460AF058FFDFED228A86
:102CA0009FED229A9FED228A224C2F1F4FF47A78B3
:102CB0004FF4A569642107A80AF030FF386800EED8
:102CC000100AF8EEC00A80EEA80AC0EE090AB0EEBB
:102CD000480A00EEC80A85ED010A3E6001F062FF75
:102CE000A169411A414509D9E17A022904D1124961
:102CF000C968401A642801D902F024F82088A0F598
:102D0000B670484507D86088B0F5B67F03D340F267
:102D100094618842CED902F015F8CBE72C00002050
:102D200000000000B0EB000800247449CDCCCC3D7D
:102D30000000C8428C640020C86400207047000076
:102D40002DED028B82B00AF0F5FE134C0090114875
:102D500020604FEA3020114D9FED118AE0610A2179
:102D600068460AF0DBFE95ED240A202284ED010A74
:102D700095ED260A084984ED020A84ED038A84ED64
:102D8000048A84ED058A84ED068A064804F02AF850
:102D9000E5E70000AA55AA55F83E00207842002039
:102DA00000000000443B002010B58AB0182102A8A2
:102DB000FDF7B0FA00200090019040F2FF10029061
:102DC000082006900C4B0020694600BF53F82020D5
:102DD0003AB19489240A01F8104001EB4004127BB7
:102DE0006270401C0428F1DB0A4609AB02A90348C3
:102DF00000F030FF0AB010BD446500202C380020E0
:102E000010B58AB0182102A8FDF784FA00200090BE
:102E100001904FF400700290082006900C4B0020A7
:102E2000694600BF53F820203AB19489240A01F87A
:102E3000104001EB4004127B6270401C0428F1DB5F
:102E40000A4609AB02A9034800F004FF0AB010BD0E
:102E5000546500202C38002010B50446088840BA7C
:102E600000B22062488840BA00B2A061888840BAA7
:102E700000B220612078012801D08879606301F0D8
:102E800091FEE06310BD102001F082BD202001F012
:102E90007FBDB6EE000AD2ED020AF0EE401A92EDC6
:102EA000031A40EEE01A90ED002AD2ED012AD0ED8F
:102EB000013A22EEA03A41EE411A21EE822AD2EDE9
:102EC000001A01EE813A22EE811A01EEE01A03EEB9
:102ED000232AD0ED020AF0EE001A01EE202A62EE5B
:102EE000210AC1ED000A92ED011AD2ED023A92EDEB
:102EF000002AD2ED030A61EE232A90ED003A90ED0C
:102F0000014A42EE602A62EE832AB0EE403A01EEB8
:102F1000413A00EEE03A63EEA00A42EE010A43EEC7
:102F2000042A90ED021A40EE812A62EEA10AC1ED58
:102F3000010A92ED011AD2ED032AD2ED020A92EDB6
:102F4000003A21EE222A60EEA22AD0ED003A01EEEC
:102F5000410A03EE202A43EE412A90ED013A00EEA9
:102F6000E00A22EE232AD0ED020A02EE832A00EEC6
:102F7000202A22EE210A81ED020A704772B6FEE78E
:102F8000002229B101291AD002291BD04FF4407226
:102F90000E490B6823F440730B600B6813430B60FE
:102FA0000A6822F0F8020A600A68022303EBC000F4
:102FB00002430A60086840F48030086070474FF4AC
:102FC0008072E5E74FF40072E2E70000103C024037
:102FD0001348016889050FD5016821F4007101606B
:102FE000016841F400610160016821F40061016041
:102FF000016841F400710160016849050FD501685D
:1030000021F480610160016841F480510160016830
:1030100021F480510160016841F4806101607047D2
:10302000003C024008490A6822F440720A600A68BB
:1030300042F004020A600A684FF4803343EA002039
:1030400002430A6070470000103C0240064A1368C1
:1030500023F44073136013681360136843F0010393
:103060001360017070470000103C0240094910B520
:103070000C6824F440740C600C6844F440740C60D8
:103080000C6844F001040C600260BFF36F8F436072
:1030900010BD0000103C0240074A136823F440733F
:1030A0001360136843F480731360136843F00103E3
:1030B0001360018070470000103C0240074A13680B
:1030C00023F440731360136843F4007313601368B0
:1030D00043F001031360016070470000103C0240A0
:1030E00017490868C206174805D5C26942F01002A0
:1030F000C26110220A600A68920605D5C26942F0D0
:103100000802C26120220A600A68520605D5C26917
:1031100042F00402C26140220A600A68120605D524
:10312000C26942F00202C26180220A600A68920704
:1031300005D5C26942F02002C261022008607047D2
:103140000C3C02406C64002070B51149044600201C
:10315000C86101F027FD06460E4D09E0601C07D04E
:1031600024B101F01FFD801BA04201D9032070BDD6
:103170002868C003F2D42868C00701D00120286065
:10318000286810F0F200F2D0FFF7AAFF012070BD0E
:103190006C6400200C3C02402DED068B8AB00AF0D6
:1031A000C9FC9FED611ADFED610A9FED619A049001
:1031B0006048B0EE490A00F0CFF89FED5FAA5F4E7D
:1031C0005F4C604FDFED609ADFF88081594D0A2136
:1031D00004A80AF0A3FC94ED490A06A905A8FEF785
:1031E0006FFC94ED480A08A907A8FEF769FC94ED66
:1031F0004A0A03A902A8FEF763FC94ED160AF0EE52
:103200004A8AB0EEC00A10EE100AB0EE688AB042E8
:1032100025DA94ED320ADFED4E0A97ED141A60EECE
:10322000200A00EE818AF0EE000A09F079FC00EE37
:10323000298AD4ED250A94ED380A9FED461A40EE0E
:10324000010A9DED061A60EE810A94ED261A00EE41
:10325000691A9DED050A41EE400A30EE888A94ED28
:10326000150AF0EE680AB0EEC00A10EE100AB0427D
:103270001DDA94ED320A97ED121AF0EE608AF0EE44
:10328000000A40EE418A09F04BFC94ED240AD4ED8B
:103290003E0A9DED071A00EEA90ADDED080A20EEB0
:1032A000200AD4ED260A00EE810A78EEC00AB0EEBC
:1032B000480A204800F0D6F96868D0ED000AC5ED4C
:1032C000240A698800EB810090ED001A85ED251A2B
:1032D000DDED031A9DED022A20EEA10A60EE820ABE
:1032E00001EE420A41EE210A85ED260AB0EEC01A2F
:1032F00011EE101AC5ED270A414505DD95ED281A96
:1033000000EE091A85ED281AB0EEE00A10EE101A48
:10331000414505DD95ED290A00EE890A85ED290A6A
:10332000FFF777F953E7000017B7D138A69B443A67
:103330000AD7233CE447002000000000CDCC4C3EDF
:10334000BC3D0020543D00208FC2753DCDCCCC3C0F
:103350003333333FAE47613D2DE9F04104462DED57
:10336000068BF0EE419AB0EE60AAF0EE408A402063
:103370000AF0FCFD03460422114604F17800FDF733
:1033800054FD4021E06FFCF7C5FF40200AF0EEFD40
:1033900003460422114604F18000FDF746FD40215A
:1033A000D4F88400FCF7B6FF08200AF0DFFD0346DE
:1033B000012202212046FDF738FD606800250560E6
:1033C000456008200AF0D2FD03460122022104F1E3
:1033D0000800FDF72AFDE0680560456008200AF056
:1033E000C5FD03460122022104F11000FDF71DFD79
:1033F00060690560456008200AF0B8FD03460122B7
:10340000022104F11800FDF710FDE0690560456038
:1034100010200AF0ABFD0346022204F12000114601
:103420008046FDF702FD606AB7EE009A05604560D0
:103430008560C560606A80ED009A9FED898A606A48
:10344000042680ED018A618C606A00EB810080EDCA
:10345000008A618C606A06EB8101084480ED009A65
:1034600010200AF083FD0346022204F128001146D1
:103470000746FDF7DAFCE06A39460560456085607D
:10348000C5604046FDF73CFF84F8880008200AF03C
:103490006DFD03460122022104F13000FDF7C5FC59
:1034A000606B0560456010200AF060FD0346022253
:1034B000114604F13800FDF7B8FCE06B056045608B
:1034C0008560C560E06BC0ED008AE06B80ED018A2D
:1034D000618FE06B00EB810080ED008A618FE06B13
:1034E00006EB81010844C0ED008A10200AF03EFD81
:1034F00003460222114604F14000FDF796FC606C81
:10350000056045608560C56010200AF02FFD034608
:103510000222114604F14800FDF787FCE06C0560CB
:1035200045608560C56010200AF020FD0346022238
:10353000114604F15000FDF778FC606D28EEA80AF2
:10354000056045608560C56020EE0A0A606D80ED0B
:10355000000A606D80ED018AB4F85210606D00EBD6
:10356000810080ED008AB4F85210606D06EB810195
:10357000084480ED000A10200AF0F8FC03460222FD
:10358000114604F15800FDF750FCE06D0560456000
:103590008560C560E06DC0ED009AE06D80ED018A48
:1035A000B4F85A10E06D00EB810080ED008AB4F8A9
:1035B0005A10E06D06EB81010844C0ED009A10201E
:1035C0000AF0D4FC0346022204F1600011460746CB
:1035D000FDF72BFC606E056045608560C560606E20
:1035E00080ED009A606E80ED018AB4F86210606E22
:1035F00000EB810080ED008AB4F86210606E06EB8B
:103600008101084480ED009A10200AF0AFFC0346C7
:10361000022204F1680011460646FDF706FCE06E42
:103620003146056045608560C5603846FDF768FE37
:1036300084F8880010200AF099FC03460222114603
:1036400004F17000FDF7F1FB606F05604560856077
:10365000C560C4F88C50BDEC068BBDE8F08100005D
:10366000000000002DE9FC5F0446406B80ED000A7D
:10367000618E606B00EB8100C0ED000A20886188DC
:10368000484382006168E068FCF72BFEB4F8400014
:10369000B4F8421048438200616CE06CFCF721FEF4
:1036A0000225A4F878500126A4F87A6004F1780283
:1036B00004F1080104F120008B4607460092FDF753
:1036C00021FD84F88800A4F88050A4F8826004F1F9
:1036D000800204F1300104F138000192FDF712FD7F
:1036E00084F88800DDE900015A467834FDF73EFB96
:1036F00004F8100FA4F1400124F8105C24F80E5CCB
:103700008A463846883C009AFDF7FCFC84F888001D
:10371000A4F88050A4F88250DDE9000204F12801E9
:10372000FDF7F0FC84F88800524604F1500101983E
:10373000FDF71CFB84F88800D4F88C0000287CD0AE
:1037400004F1180204F16000904604F11001814672
:10375000FDF7D8FC84F8880024F8785F514665802E
:103760004846009AFDF7CEFC04F8100FA4F12001A2
:1037700024F8085C24F8065CDDE900020F46883C6A
:10378000FDF7C0FC84F88800A4F87850A4F87A50BB
:10379000DDE9002004F15801FDF7E8FA84F888001B
:1037A000A4F88050A4F88250DDE900017834FDF7D8
:1037B00041FB20742580658039465046009AFDF70C
:1037C000A1FC04F8100FA4F11802DDE9000117466E
:1037D000883CFDF797FC84F8880024F8785F594608
:1037E00066804846009AFDF78DFC2074258166812D
:1037F000DDE900124046FDF723FD20742580668038
:10380000DDE900213846FDF77DFC2074783C224636
:1038100058460099FDF7AAFA84F8880024F8785FE2
:10382000494665803846009AFDF76CFC2074258176
:103830006581DDE90002514600E010E0FDF762FC21
:1038400004F8100FA4F148025046883C0199FDF796
:10385000F7FC04F8880F00206060BDE8FC9F208919
:10386000618948438200E1686068FCF73AFDB4F87A
:103870004800B4F84A1048438200E16C606C02B022
:10388000BDE8F05FFCF72DBD02220270120342601A
:10389000B7EE000A80ED020A0022C26002614261B6
:1038A0008261C261026242628262C26202634263F8
:1038B000C2634A1E032A05D8074A02EB810141F878
:1038C000040C70474A1F022AFBD8034A203202EB3D
:1038D000810141F8140C7047446500202DED068BE2
:1038E0008CB00AF027F90A9028216846FCF712FDEF
:1038F0009FED4D0A02218DED030A4C48FFF7C4FFEE
:103900009FED4B0A8DED000A9FED4A8A8DED018AED
:103910008DED028ADFED489ACDED049A9FED470ABE
:103920008DED050A8DED060A8DED070A8DED088AED
:10393000DFED438A6946CDED098A424805F0D6FE9F
:103940009FED410A8DED000A9FED400A8DED010AC1
:103950008DED028A9FED3E9A9FED3EAA8DED059A70
:103960009FED3D0A8DED06AA8DED070A35488DEDD8
:10397000088ACDED098A6946403005F0B7FEB7EEFA
:10398000080A8DED000A8DED018A8DED028A9FED0A
:10399000330ACDED049A8DED050A8DED069A8DED75
:1039A000078A22488DED088A8DED098A69464030E4
:1039B00005F09CFE9FED2A0A1C488DED000A8DED56
:1039C000010A8DED028A8DED059A9FED260A8DED97
:1039D00006AA8DED070A8DED088ACDED098A6946A4
:1039E000803005F083FE4FF47A700AF090F81E4D97
:1039F0000E4C02210AA80AF091F8286880B100F064
:103A0000F9F800F055F894ED5F0AFEF705FE94ED25
:103A10002F0ABDEEC00A84ED030AFFF7C5F9E8E7F7
:103A200000F024F8E5E700006F12033B183F002088
:103A3000355EBA3E000000000000B443000034438D
:103A4000FFFF7F7F1840002000C05A4600007A45E3
:103A5000000010420060EA460000FA440000B44250
:103A600000401C450000FA45543D00200D4910B5AA
:103A70000020C860FFF798F99FED0B0AFEF7CCFD18
:103A80000848403005F024FE0648803005F020FE4E
:103A9000064805F01DFE0548BDE81040403005F021
:103AA00017BE0000183F0020000000001840002052
:103AB00070B54A4C4A4E4B4D2DED048B94ED191ABE
:103AC000D6ED490A95ED160AFEF78AF8B0EE408A5F
:103AD00094ED010AB8EEC01A9FED439AF0EE490A40
:103AE000DFED428AB0EE680AFEF77AF8B5EEC00A5A
:103AF000F1EE10FA94ED010AB8EEC01A94ED080A3E
:103B0000F8EEC00AB0EE680A10DDFEF769F8FDEEC7
:103B1000C08A94ED010AB8EEC01A94ED080AF8EED6
:103B2000C00AB0EE490AFEF75BF813E0FEF758F85A
:103B3000B1EE400AFDEEC08A94ED010AB8EEC01A5B
:103B400094ED080AF8EEC00AB0EE490AFEF748F80C
:103B5000B1EE400AF8EEE80ADFED251ABDEEC00A24
:103B600020EEA12AD4ED010AB8EEC00AF8EEE02A50
:103B7000F8EEE00A60EE211A82EE221A81EEA00A27
:103B8000B4EEC18AF1EE10FA06DD95ED160A30EEBC
:103B9000480A30EE010A0AE0B4EEC08AF1EE10FAEB
:103BA00007D2D5ED160A70EEC80A30EE800A85ED10
:103BB000160A0A48D5ED160A96ED490A403005F076
:103BC00091FCD4ED1F0A96ED150A0448BDEC048B58
:103BD0008030BDE8704005F003BD0000183F0020B4
:103BE000BC3D0020543D002000A0AF4500F0D24570
:103BF0000000B44310B50A480A4CD0ED150A94ED04
:103C00004A0A094805F06EFC084894ED170AD0ED01
:103C10004F0ABDE8104000F5A07005F0E1BC0000BF
:103C2000543D0020BC3D002018400020183F0020DB
:103C300090F82020012A07D0022A05D0416A41F4D9
:103C40008021416201207047006842690A43426155
:103C500000207047F0B590F820500468A468012D4A
:103C600005D0022D03D0416A41F480214DE014F0CB
:103C7000406F01D1E50045D5C4F301640125A5409D
:103C80001D608D684FF4C0739DB1CE6835434E689A
:103C900045EAC605066803EB0417F5514FF4C275F3
:103CA000076805EB04150E697E51097D012905D0D1
:103CB00009E00E88CD6845EA4655EBE701684E59A4
:103CC00046F480764E511179D2F805504FF4C676FD
:103CD00041EA0521056806EB0416A9511178D2F8CE
:103CE00001204FF4C47541EA0221026805EB041576
:103CF0005151006803EB0411425842F00102425056
:103D00000020F0BD416A41F4001141620120F0BD84
:103D100010B590F82020012A07D0022A05D0416A68
:103D200041F480214162012010BD3B48D0F80022BF
:103D300042F00102C0F80022D0F8002222F47C52A6
:103D4000C0F80022D0F800224B6A42EA0322C0F8F1
:103D500000220A7D02F01F0301229A40D0F81C3293
:103D60009343C0F81C32CB69B3B9D0F80C329343FB
:103D7000C0F80C328C894B6864F31F434C6900EB2C
:103D8000C404C4F840320C890B6864F31F434C69C7
:103D900000EBC404C4F84432CB69012B16D1D0F82F
:103DA0000C321343C0F80C320C884B6864F31F4389
:103DB0004C6900EBC404C4F840320C89CB6864F34E
:103DC0001F434C6900EBC404C4F844328B69002BD8
:103DD000D0F804320ED01343C0F804320B69002B24
:103DE000D0F8143208D01343C0F81432096A0129FC
:103DF00004D008E09343EFE79343F5E7D0F81C12B3
:103E00001143C0F81C12D0F8001221F00101C0F8D3
:103E10000012002010BD000000640040704770B523
:103E200090F82040012C05D0022C03D0416A41F4C7
:103E3000802128E0046809B32469A40720D04FF446
:103E4000D874056804EB01142D5915F0040595602C
:103E500005682D591AD0ED08556005682C5904F0F5
:103E60000204D4604FF4DA74056804EB01142E598F
:103E700006F00F06082E0CD308250DE0E468DCE7F9
:103E8000416A41F400114162012070BD6D0D156061
:103E9000E3E72D5905F00F05156105682D59C5F3A8
:103EA0000725956105682C59240C54614FF4DC7288
:103EB000046802EB0112A4581C700468A458240A78
:103EC0005C700468A458240C9C700468A258120EFC
:103ED000DA704FF4DE72046802EB0112A4581C7110
:103EE0000468A458240A5C710468A458240C9C71CA
:103EF0000468A258120EDA71006829B1016941F014
:103F000020010161002070BDC16841F02001C16045
:103F1000F8E72DE9F05F0546006800244669D0F80F
:103F200004908768D0F80CB0D0F810A0D0F81880B2
:103F3000F10748D0F90714D001218160B80703D5F3
:103F4000284600F094FA0CE0780702D54FF400649C
:103F500007E0380702D54FF4805402E0284600F00D
:103F600085FAF80516D529684FF480708860B80581
:103F700003D5284600F07DFA0CE0780502D544F41C
:103F8000005407E0380502D544F4804402E0284696
:103F900000F06EFAF80316D529684FF48030886077
:103FA000B80303D5284600F066FA0CE0780302D582
:103FB00044F4004407E0380302D544F4803402E0BE
:103FC000284600F057FA300707D55FEACB6004D5E2
:103FD0002968102044F40074C86070074FF0080787
:103FE00007D55FEA0B7004D52868C760284600F043
:103FF000A1F9B00706D52868C068800702D0284616
:1040000000F09AF9700607D55FEACA6004D52968FE
:10401000102044F480640861B00607D55FEA0A7096
:1040200004D528680761284600F0D2F9F00606D5C5
:1040300028680069800702D0284600F0CBF9B00359
:1040400008D55FEAC96005D5296810204860284670
:1040500000F0DEF9F00307D55FEA097004D528689F
:104060004760284600F008FA300446D55FEA4970F8
:1040700040D5F00504D55FEAC87001D044F00104D2
:10408000B00504D55FEA887001D544F002047005DC
:1040900004D55FEA487001D544F00404300529D501
:1040A00018F0700F26D008F07000402815D006DCFC
:1040B000102809D020280AD0302816D10AE050282C
:1040C0000ED0602811D10EE044F008040DE044F059
:1040D00010040AE044F0200407E044F0400404E047
:1040E00044F0800401E044F480742868816921F080
:1040F00070018161296804204860002C05D0686A3D
:10410000204368622846FFF789FEBDE8F09F70B53E
:10411000040003D094F8200010B104E0012070BD29
:10412000204600F081F82068016841F0010101603B
:1041300000F038FD0546052604E000F033FD401B85
:104140000A2811D820684068C007F6D020680168A6
:1041500021F00201016000F025FD05460BE000F0B2
:1041600021FD401B0A2806D9606A40F400306062D5
:1041700084F82060D2E7206840688007EFD4207E72
:104180000128206801683DD021F080010160607E37
:1041900001282068016838D021F040010160A07E2C
:1041A00001282068016833D021F020010160E07E01
:1041B0000128206801682ED041F010010160207FA5
:1041C00001282068016829D021F008010160607F82
:1041D00001282068016824D021F004010160D4E99D
:1041E00002010843D4E90412114308436168491EDF
:1041F00008432168C86100206062012084F8200023
:10420000002070BD41F08001C0E741F04001C5E7EA
:1042100041F02001CAE721F01001CFE741F0080189
:10422000D4E741F00401D9E7F0B587B00446142182
:104230006846FCF76FF83A4B3A48DFF8E0E0196857
:10424000D4F800C0374A032502260927103000247D
:10425000491CF44522D11960012907D1016841F0B8
:1042600000710160006800F000700590106840F077
:10427000080010601068CDE9005600F00800CDE994
:10428000047069462848CDE9024500F08DFB002204
:104290000121142000F024FD14203AE0DFF88CE026
:1042A000F44538D1D0F800C04CF0806CC0F800C0A4
:1042B000D0F800C001290CF0806CCDF814C0196052
:1042C00007D1016841F000710160006800F00070E2
:1042D0000590106840F002001060106802AB00F01A
:1042E000020005906020CDE9000683E8B000694631
:1042F0000F4800F059FB002205213F2000F0F0FCA0
:104300003F2000F0DFFC00220521412000F0E8FC06
:10431000412000F0D7FC07B0F0BD00000064004071
:104320002400002030380240000C024000680040A9
:10433000000402407047000010B58AB00446002017
:1043400007900146089007AB6A462046FFF767FDD5
:104350001B49206888422BD10098A0F201200B282D
:1043600028D2DFE800F0060606060F0F0F0F181818
:1043700018001448009900EB8100A0F58050D0F897
:10438000FC0710E01048009900EB8100A0F5805078
:10439000D0F8EC0707E00D48009900EB8100A0F58C
:1043A0008050D0F8DC07002802D007A9FEF754FDA2
:1043B0000AB010BD07A90098FEF788FBF8E70000D7
:1043C00000640040546500204465002064650020BE
:1043D0007047000010B58AB004460020079008908E
:1043E00007AB6A4601212046FFF719FD0649206800
:1043F000884207D10098B0F5027F03D107A903488E
:10440000FEF72AFD0AB010BD00680040D83F00202A
:104410007047000070B5044690F82000012804D0D1
:10442000606A40F40020606218E0022084F82000F6
:104430002068016821F00101016000F0B3FB05462E
:104440000EE000BF00F0AEFB401B0A2808D9606AEE
:1044500040F400306062052084F82000012070BD27
:1044600020684068C007EDD1606270BD704770473A
:10447000704770477047704770472DE9F041044618
:10448000876D00F08FFB064694F835000025022862
:1044900006D08020606584F834500120BDE8F081AA
:1044A0002068016821F0160101602068416921F04F
:1044B00080014161206C08B9A06C20B120680168BE
:1044C00021F0080101602068016821F0010101600C
:1044D0000CE000F067FB801B052807D920206065F1
:1044E000032084F8350084F83450D7E7206800684A
:1044F000C007EED194F85C103F208840B8600120DE
:1045000084F8350084F834500020C7E790F835105F
:10451000022903D08021416501207047052180F8E0
:1045200035100068016821F001010160002070472A
:104530002DE9F84304464FF00009CDF80090634898
:104540004FF41651A56D0068B0FBF1F72E6894F892
:104550005C10082000FA01F131420FD021680A688E
:1045600052070BD50A6822F004020A6094F85C1026
:104570008840A860606D40F00100606594F85C10B0
:104580004FF0010808FA01F0304208D0216849696B
:10459000090604D5A860606D40F00200606594F8DB
:1045A0005C1004208840304208D0216809688907DF
:1045B00004D5A860606D40F00400606594F85C105C
:1045C00010208840304218D021680968090714D5A6
:1045D000A86020680168490304D50068000308D575
:1045E000A16C07E00168C90503D4016821F0080146
:1045F0000160216C09B12046884794F85C102020A6
:104600008840304231D021680968C9062DD5A8609C
:1046100094F8350005282068016806D0490347D57D
:10462000006800031DD4616C1CE021F016010160DC
:104630002068416921F080014161206C08B9A06CBB
:1046400020B12068016821F00801016094F85C1035
:104650003F208840A86084F8358084F83490216D2C
:104660001FE0E16B09B120468847606D00282BD020
:10467000606DC00714D0052084F8350020680168FB
:1046800021F0010101600098401C0090B84203D85D
:1046900020680068C007F6D184F8358084F834902B
:1046A000E16C002910D001B02046BDE8F043084776
:1046B0000168C905D5D4016821F01001016084F8B2
:1046C000358084F83490CCE7BDE8F883B40000204E
:1046D0002DE9F041044600F065FA06465CB102207F
:1046E00084F83500002584F834502068016821F0F2
:1046F000010101600DE00120BDE8F08100F052FAF7
:10470000801B052805D920206065032084F835002A
:10471000F2E720680068C007F0D1226811682048DD
:104720000140D4E901031843D4E903363343184365
:1047300063691843A3691843E3691843236A18435C
:104740000843616A042903D1D4E90B1319430843D0
:10475000106020684069666A20F0070130460E4309
:10476000012704280CD1A06A0643E06A40B1204624
:10477000FEF73CFA20B14020606584F83570BAE756
:10478000206846612046FEF71DFA94F85C203F2120
:1047900091408160656584F835700020ACE70000C9
:1047A0003F8010F02DE9F0410446866D90F834000A
:1047B000002501280DD0012084F8340094F83570CC
:1047C0000020012F07D084F8340002252846BDE8D8
:1047D000F0810220FBE7022784F8357060652046EF
:1047E000FEF72EFA94F85C103F208840B0602068F5
:1047F000016841F016010160206C20B12068016859
:1048000041F0080101602068016841F00101016088
:10481000DCE7000070B5044600F0C4F90546601CF2
:1048200002D004480078044400F0BCF9401BA042C8
:10483000FAD370BDA80000202DE9F04704462248B5
:104840000F46017E01290AD00121804601764CF2F3
:1048500050394846FEF778FC020003D02FE00220D2
:10486000BDE8F0874FF0FF3038602068174D012811
:1048700001D0A6681CE0207C6168FEF7D3FB4846A7
:10488000FEF762FC0246286820F00400286014E06D
:10489000217C3046FEF774FB4846FEF755FC0200CB
:1048A000286820F0FA00286001D03E6005E0761C00
:1048B000D4E902100844B042EAD8FEF789FB00218F
:1048C00088F818101046CBE76C640020103C0240BA
:1048D0000348016841F0004101600020704700007A
:1048E000103C02402DE9F0471B4E05461446307E31
:1048F0001F468946012808D0012030764CF25038F6
:104900004046FEF721FC18B114E00220BDE8F08714
:104910009DB1012D16D0022D19D022463B464846A6
:10492000FEF7A4FB4046FEF70FFC0C490A6822F094
:1049300001020A6000213176E8E7E1B24846FEF75D
:1049400085FBEFE7A1B24846FEF7A6FBEAE7214662
:104950004846FEF7B3FBE5E76C640020103C0240DC
:10496000074900200A68002A09DA054A054B0C3A73
:104970001360054B13600968002900DA01207047B5
:10498000103C024023016745AB89EFCD7047000022
:10499000044910B50A68024202D00860FFF7F6FF2A
:1049A00010BD0000143C01402DE9F84FDFF8BCA118
:1049B0000022012503264FF00F090AF1040BAAF18A
:1049C000040E00BF0B6805FA02F42340A34270D125
:1049D0000F7907F00307012F01D0022F16D1876846
:1049E0004FEA420806FA08FC27EA0C07D1F80CC087
:1049F0000CFA08FC4CEA070CC0F808C04768A7434B
:104A00000C79C4F3001494403C4344600C79E443B3
:104A1000A4070AD0C4684FEA420C06FA0CF7BC435C
:104A20008F6807FA0CF72743C7600C7904F003047A
:104A3000022C12D1D40800EB840CDCF8204057077C
:104A4000FF0E09FA07F824EA0804D1F8108008FAE2
:104A500007F848EA0408CCF8208004684FEA420CC2
:104A600006FA0CF7BC430F7907F0030707FA0CF7B7
:104A7000274307604C6814F4403F70D03C4C2768D3
:104A800047F480472760246822F0030704F4804439
:104A90000094384C07EB040CDCF8084897074FEA01
:104AA000177809FA08F7BC43334FB84202D1002700
:104AB00024E054E0314FB84201D101271EE0304FCD
:104AC000B84201D1022719E02E4FB84201D1032785
:104AD00014E02D4FB84201D104270FE02B4FB8420C
:104AE00001D105270AE02A4FB84201D1062705E087
:104AF000284FB84201D1072700E0082707FA08F736
:104B00002743CCF80878DAF800405746D1F804C0BB
:104B10009C435FEACC2C00D51C433C60DBF8004092
:104B20005F46D1F804C09C435FEA8C2C00D51C433F
:104B30003C60DEF800407746D1F804C09C435FEA51
:104B40008C3C00D51C433C60084F083F3C68D1F8C2
:104B500004C09C435FEACC3C00D51C433C60521C23
:104B6000102AFFF42FAFBDE8F88F0000083C014089
:104B7000443802400030014000000240000402407E
:104B800000080240000C02400010024000140240E5
:104B900000180240001C02400AB1816170470904FC
:104BA000FBE700000148806870470000A800002073
:104BB000024881680278114481607047A800002093
:104BC0000B4810B5016841F400710160016841F4BF
:104BD00080610160016841F480710160032000F090
:104BE0009FF80F2000F006F800F050F8002010BDEC
:104BF000003C024030B505461F4887B000240168DC
:104C000041F010010160006806A900F0100000905A
:104C100001A800F05DFE0498A8B100F07FFE4000FE
:104C20001649174AB0FBF1F11648491E026040F2DE
:104C3000E732C0E90324C0E90114846101F048FBB4
:104C4000040003D015E000F069FEE9E70D4801F02B
:104C5000CBFB04000DD1362000F034F8102D07D224
:104C600000222946362000F03BF80748056000E0A6
:104C7000012407B0204630BD4038024040420F00BA
:104C8000001000400C3D0020AC0000200C4882B019
:104C9000016841F480410160006800F480400090A8
:104CA0000748001F016841F0805101600068002240
:104CB00000F0805000900F21901E02B000F010B85C
:104CC00044380240002809DB00F01F020121914016
:104CD0004009800000F1E020C0F80011704700009A
:104CE000F0B40E4B1B680C46C3F30223C3F1070557
:104CF000042D00D90425191D072901D2002300E045
:104D0000DB1E012606FA05F1491E214099409E400E
:104D1000761E16403143F0BC07F05BBB0CED00E0A3
:104D2000064900F0070208684FF6FF03184040EA02
:104D30000220034A10430860704700000CED00E0B9
:104D40000000FA05BFF34F8F05480168054A01F4DA
:104D5000E06111430160BFF34F8F00BFFDE700002A
:104D60000CED00E00400FA05704700684162002085
:104D70007047F0B50368586A39B19C6A4FF482767F
:104D800000EB144400204D1E0AE040EA0240986205
:104D90000FE006EB8007DF59401C04EB1744C0B25C
:104DA000A842F6D344EA02404FF4807202EB81013C
:104DB00058500020F0BDD0F8E00406F063B801EBD5
:104DC000C10200EB8202D0F8E004126A05F0B8BF1D
:104DD00001EBC10200EB8202D0F8E004D2F86022BD
:104DE00006F009B8D0F8E00406F04EB80A0601F063
:104DF0000F0101EBC10100EB810101D5143101E08C
:104E000001F51571006806F027BF70B504460B0662
:104E100001F00F0000EBC00104EB81014FF0010233
:104E20004FF0000502D54A75143103E081F8555260
:104E300001F51571087094F89404012808D084F8DD
:104E40009424206806F026FC84F89454002070BD59
:104E5000022070BD70B5044601F00F002279904227
:104E600001D9012070BD0B0601F00F0101EBC1015A
:104E700004EB81014FF001024FF0000502D54A75A5
:104E8000143103E081F8555201F515718D700870E9
:104E900094F89404012808D084F89424206806F03B
:104EA0006BFD84F89454002070BD022070BD01F0A9
:104EB0000F0101EBC10100EB8100D0F868027047DF
:104EC0002DE9F04104460F0601F00F0000EBC00190
:104ED00004EB81014FF001064FF0000502D54E753D
:104EE000143103E081F8555201F5157108708A609C
:104EF0000B714A7802B14883022B00D14D7194F8AE
:104F00009404012809D084F89464206806F014FB06
:104F1000284684F89454BDE8F0810220FBE710B5E0
:104F200001F00F0404EBC40100EB8101C1E99823F7
:104F30000023C1F8683281F8553281F854428379F0
:104F400001F51571012B00D1CA618279006806F064
:104F50006BFD002010BD70B504460D4601F00F003A
:104F60002179884201D9012070BD29064FF0000641
:104F70004FF0010206D500EBC00104EB81014A7538
:104F8000143107E005EBC50104EB810181F855629E
:104F900001F515718A70087094F89404012807D0FF
:104FA00084F89424206806F013FD280702D007E057
:104FB000022070BDA17904F29C42206806F0B0FC8A
:104FC00084F89464002070BD10B501F00F0404EB68
:104FD000C40100EB8101C1E9082300238B62012396
:104FE0004B7501F8144F8379012B00D1CA61827986
:104FF000006806F019FD002010BD00002DE9FC5FDF
:1050000005680446284606F0C3FE00287DD12068C6
:1050100006F0EAFE002878D0D5F80808C0F30D2085
:10502000C4F8D404206806F0DFFE800704D52068A9
:10503000416901F002014161206806F0D5FEC10618
:1050400004F29C40009034D52068816921F0100161
:1050500081612F6A07F00F0000EBC00004EB8006AF
:10506000C7F3434006F51576022802D0062811D072
:105070001AE047F6F070074216D0C7F30A12174637
:105080002846F16806F0B4FEF0683844F0607069B4
:10509000384408E008222846009906F0A9FE706905
:1050A000C7F30A11084470612068816941F010015A
:1050B0008161206806F098FE00034FF0080B4FF066
:1050C000000A4FF001097CD50026206806F06BFE2F
:1050D000074674E0F80770D0F1B2206806F07CFE55
:1050E0008046C00707D005EB4611C1F8089B314642
:1050F000204604F03FF95FEA087024D505EB46111D
:10510000C1F808BB2068016C00E023E200EB461008
:105110000191D0F8082BFB4B994205D9110403D516
:105120004FF40041C0F8081B204600F0F6FAF5499C
:105130000198884207D9A079012804D1206801216B
:10514000009A06F0EDFB5FEAC86004D505EB461156
:105150001020C1F8080B5FEA88701DD56869000649
:1051600005D5D5F8040840F48061C5F8041806EBAD
:10517000C60004EB800090F8571200F51570012965
:1051800005D180F803A0F1B2204600F0E9F905EB63
:1051900046110220C1F8080B5FEA886004D505EBD0
:1051A00046102021C0F8081B5FEA884005D505EBB2
:1051B00046104FF40051C0F8081B7F08761C002FE2
:1051C00088D1206806F010FE40036ED5206806F0F6
:1051D000E3FD0746002666E0F80762D0F1B22068DA
:1051E00006F0E8FD8046C00723D006F00F01D5F891
:1051F000342809FA01F18A43C5F8342805EB461131
:10520000C1F80899A07901280FD106EBC60004EB7C
:105210008000D0E907211144016236B9606A20B9E3
:1052200020680121009A06F07BFBF1B22046FFF7CF
:10523000C6FD5FEA087003D505EB4611C1F808B951
:105240005FEAC86004D505EB46111020C1F80809D3
:105250005FEA486004D505EB46104021C0F8081904
:105260005FEA887016D53146284606F066FD06EBE3
:10527000C60004EB8000C17D1430012905D180F8FF
:1052800003A0F1B2204600F067F905EB46110220B9
:10529000C1F808095FEA086003D53146204604F0EA
:1052A000CFF87F08761C002F96D1206806F09CFD71
:1052B000002811DAD5F8040820F00101C5F8041817
:1052C00094F8CC0401282BD0204600F00BFA20687B
:1052D000416901F000414161206806F085FD00054B
:1052E0000BD5D5F80808C00702D0204600F03EFADA
:1052F0002068416901F400614161206806F074FD95
:10530000C00467D5D5F8040820F00100C5F80408EA
:105310001021206806F011FD00214FF67F3220E0B9
:1053200084F8CCA400212046FFF71EFDCFE700BF84
:1053300005EB4110C0F80829D0F8003923F4001318
:10534000C0F80039C0F8082BD0F8003B23F4001354
:10535000C0F8003BD0F8003B43F00063C0F8003BCE
:10536000491C20798842E3D8D5F81C0840F0011187
:10537000C5F81C18E07B002828460DD0D0F884081A
:1053800040F00B01C5F88418D5F8440840F00B0133
:105390002846C5F844180DE0D0F8140842F22B0155
:1053A0000843C5F81408D5F8100840F00B0128464A
:1053B000C5F81018D0F8000820F4FE61C5F80018F0
:1053C000A1792068009A06F0ABFA2068416901F4DF
:1053D00080514161206806F007FD800415D52068E2
:1053E00006F0EAF8206806F0C6FCE07100F090FADA
:1053F0000146E279206806F059FD204600F05CF98C
:105400002068416901F400514161206806F0ECFC1C
:10541000000707D5204600F069F92068416901F0CE
:1054200008014161206806F0DFFC000616D5A86976
:1054300020F08001A96101260DE000BF06EBC60047
:1054400004EB800090F85702012803D1F1B2204606
:10545000FFF7CCFC761C2079B042EFD8206806F02C
:10546000C3FCC0021FD501264F4614E005EB4610D1
:10547000D0F8001906EBC60004EB8002107E01286C
:1054800008D1002906DAF0B240F08001D775204635
:10549000FFF7ACFC761C2079B042E7D82068416960
:1054A00001F480114161206806F09EFC800234D531
:1054B00001204A4629E000BF05EB4011D1F8001B4E
:1054C00000EBC00304EB830393F85862012E1BD159
:1054D000002919DA94F8D46401F4803106F0010649
:1054E000B14211D183F85722A96941F08003AB6121
:1054F0006969090608D4D5F8040840F40070C5F8B5
:10550000040805E00A30544F401C21798142D3D869
:105510002068416901F400114161206806F064FCD3
:10552000400007D52046FFF746FC2068416901F09E
:1055300080414161206806F057FC40070AD5206889
:105540004568680702D52046FFF74CFC2068416893
:1055500029434160BDE8FC9FD0F8E00405F0E7BCBA
:10556000D0F8E00405F0F7BCF8B5040005D094F8D5
:1055700095042668002510B106E00120F8BD84F8E6
:105580009454204600F056F8032084F89504B6F1B0
:10559000A04F00D1A571206806F0BCF9207C8DF8E1
:1055A000000094E80F0006F015F80226B8BB0021B1
:1055B000206806F03CFC90BB002001270DE000BFF6
:1055C00000EBC00104EB81014F750875C8850D76AD
:1055D000CD610D62401CC0B24D6221798142EFD88D
:1055E000002011E000EBC00104EB810181F855526D
:1055F00081F8540281F85852C1F85C52C1F86052E7
:10560000401CC0B2C1F8645221798142EAD8207CA2
:105610008DF8000094E80F0006F0BEF810B184F891
:105620009564AAE7657484F89574206806F0A6F876
:105630000020F8BD10B586B0044614216846FAF77C
:1056400069FE2068B0F1A04F2FD1194800210268EF
:1056500042F001020260006800F0010005904FF482
:10566000C05000900220CDE90101032003900A20E0
:10567000049069460F48FFF797F90D48001D01682F
:1056800041F0800101600A481430016841F4804112
:1056900001600068002200F480400590052143204D
:1056A000FFF71EFB4320FFF70DFB06B010BD000007
:1056B000303802400000024070B50446C079012530
:1056C00070B1022801D0FDF759FC2946D4F8E00456
:1056D00005F0AFFCD4F8E004BDE8704005F064BC10
:1056E0000025F2E7D0F8E00405F08CBCD0F8E00427
:1056F00005F092BC10B5044690F8940401280AD035
:10570000012084F894046174206806F0BEFB002038
:1057100084F8940410BD022010BDD0F8E02400F2FB
:105720009C41104605F091BC10B50446006894F801
:105730009414012909D0012184F89414C168490600
:1057400009D5617B012902D005E0022010BD816BE3
:1057500041F480318163206806F0CDFA206805F0BD
:10576000FFFF002084F8940410BD000010B504462B
:10577000D0F8E00405F0ABFC2068D0F8001E41F042
:105780000101C0F8001EE07A002804D00248016838
:1057900041F00601016010BD10ED00E02DE9F04779
:1057A0000E46050065D0DFF81481D8F80000F7B286
:1057B00000F00700B04207D288F80070D8F8000067
:1057C00000F00700B04254D128683D4C810712D543
:1057D000400703D5206840F4E05020602878000797
:1057E00003D5206840F4604020602068A96820F05C
:1057F000F000084320602878C0072DD03049686841
:105800000839012812D0022813D0032811D00968C2
:10581000890700292DDA216821F003010143216065
:10582000FFF7C0F9814641F2883A0EE00968890322
:10583000EFE709688901ECE7FFF7B4F9A0EB09018C
:10584000514502D90320BDE8F0872068696800F05F
:105850000C00B0EB810FEFD1D8F80010404601F0FA
:105860000701B14207D90770006800F00700B04295
:1058700001D00120E7E72878400705D52068E968CE
:1058800020F4E050084320602878000706D52068FF
:10589000296920F4604040EAC100206000F05EF811
:1058A0002168084AC1F30311515CC84006490860E9
:1058B00006480068FFF79EF90020C4E7003C02405C
:1058C000083802403CEC0008B4000020AC00002086
:1058D0000F2202600C4A136803F00303436013684D
:1058E00003F0F0038360136803F4E053C3601268AD
:1058F0004FF4E05303EAD20202610448006800F06A
:10590000070008607047000008380240003C024071
:105910000148006870470000B400002004480549B1
:1059200000680968044AC1F38221515CC84070478D
:10593000B4000020083802404CEC00080448054937
:1059400000680968044AC1F34231515CC84070479D
:10595000B4000020083802404CEC0008154810B58F
:10596000006810F00C02144813D01449042A0FD018
:10597000082A0ED10F4C241F2268236802F03F0230
:105980005B0207D52068C0F38810A0FB010106E088
:10599000084610BD2168C1F38811A1FB0001002356
:1059A000FAF76EFC2168C1F30141491C4900B0FBC4
:1059B000F1F010BD083802400024F400001BB700CD
:1059C0002DE9F84F04006ED02078DFF84C93C00723
:1059D000A9F104054AD009F104000168C1F381016D
:1059E000012908D00068C0F3810002280AD1D9F843
:1059F0000000400206D52868800337D5606800287B
:105A0000E1D033E06068B0F5803F10D0B0F5A02F52
:105A1000286810D020F480302860286820F4802086
:105A200028606068A8B1FFF7BDF806460DE0286859
:105A300040F48030F4E740F480202860F7E700BFAE
:105A4000FFF7B0F8801B642873D828688003F7D567
:105A50000CE0FFF7A7F8064605E000BFFFF7A2F845
:105A6000801B6428F0D828688003F7D42078DFF8FA
:105A7000AC8280074FF0000A3ED5A748001D0168A0
:105A800011F00C0F08D00068C0F3810002280BD180
:105A9000D9F80000400207D42868800716D5E068CE
:105AA000012800D112E033E1E068B8B10120C8F864
:105AB0000000FFF777F8064605E000BFFFF772F831
:105AC000801B0228C0D828688007F7D5286821697C
:105AD00020F0F80040EAC10028600DE0C8F800A0FE
